{
  "_format": "hh-sol-artifact-1",
  "contractName": "OrderBook",
  "sourceName": "contracts/SemanticSwap/OrderBook.sol",
  "abi": [
    {
      "inputs": [
        {
          "internalType": "uint256",
          "name": "",
          "type": "uint256"
        }
      ],
      "name": "openAsks",
      "outputs": [
        {
          "internalType": "contract Order",
          "name": "",
          "type": "address"
        }
      ],
      "stateMutability": "view",
      "type": "function"
    },
    {
      "inputs": [
        {
          "internalType": "uint256",
          "name": "",
          "type": "uint256"
        }
      ],
      "name": "openOffers",
      "outputs": [
        {
          "internalType": "contract Order",
          "name": "",
          "type": "address"
        }
      ],
      "stateMutability": "view",
      "type": "function"
    },
    {
      "inputs": [
        {
          "internalType": "string",
          "name": "_statement",
          "type": "string"
        }
      ],
      "name": "submitAsk",
      "outputs": [],
      "stateMutability": "nonpayable",
      "type": "function"
    },
    {
      "inputs": [
        {
          "internalType": "string",
          "name": "_statement",
          "type": "string"
        }
      ],
      "name": "submitOffer",
      "outputs": [],
      "stateMutability": "nonpayable",
      "type": "function"
    }
  ],
  "bytecode": "0x608060405234801561001057600080fd5b50610a60806100206000396000f3fe60806040523480156200001157600080fd5b5060043610620000525760003560e01c806321b8571d146200005757806391c4c6d8146200007757806397babf5114620000ad578063e13b255914620000e3575b600080fd5b6200007560048036038101906200006f91906200035a565b62000103565b005b6200009560048036038101906200008f91906200039f565b620001a3565b604051620000a4919062000462565b60405180910390f35b620000cb6004803603810190620000c591906200039f565b620001e3565b604051620000da919062000462565b60405180910390f35b620001016004803603810190620000fb91906200035a565b62000223565b005b600133826040516200011590620002c3565b620001229291906200042e565b604051809103906000f0801580156200013f573d6000803e3d6000fd5b509080600181540180825580915050600190039060005260206000200160009091909190916101000a81548173ffffffffffffffffffffffffffffffffffffffff021916908373ffffffffffffffffffffffffffffffffffffffff16021790555050565b60018181548110620001b457600080fd5b906000526020600020016000915054906101000a900473ffffffffffffffffffffffffffffffffffffffff1681565b60008181548110620001f457600080fd5b906000526020600020016000915054906101000a900473ffffffffffffffffffffffffffffffffffffffff1681565b600033826040516200023590620002c3565b620002429291906200042e565b604051809103906000f0801580156200025f573d6000803e3d6000fd5b509080600181540180825580915050600190039060005260206000200160009091909190916101000a81548173ffffffffffffffffffffffffffffffffffffffff021916908373ffffffffffffffffffffffffffffffffffffffff16021790555050565b6103f5806200063683390190565b6000620002e8620002e284620004a8565b6200047f565b9050828152602081018484840111156200030157600080fd5b6200030e84828562000560565b509392505050565b600082601f8301126200032857600080fd5b81356200033a848260208601620002d1565b91505092915050565b60008135905062000354816200061b565b92915050565b6000602082840312156200036d57600080fd5b600082013567ffffffffffffffff8111156200038857600080fd5b620003968482850162000316565b91505092915050565b600060208284031215620003b257600080fd5b6000620003c28482850162000343565b91505092915050565b620003d681620004fa565b82525050565b620003e78162000538565b82525050565b6000620003fa82620004de565b620004068185620004e9565b9350620004188185602086016200056f565b62000423816200060a565b840191505092915050565b6000604082019050620004456000830185620003cb565b8181036020830152620004598184620003ed565b90509392505050565b6000602082019050620004796000830184620003dc565b92915050565b60006200048b6200049e565b9050620004998282620005a5565b919050565b6000604051905090565b600067ffffffffffffffff821115620004c657620004c5620005db565b5b620004d1826200060a565b9050602081019050919050565b600081519050919050565b600082825260208201905092915050565b600062000507826200050e565b9050919050565b600073ffffffffffffffffffffffffffffffffffffffff82169050919050565b6000819050919050565b600062000545826200054c565b9050919050565b600062000559826200050e565b9050919050565b82818337600083830152505050565b60005b838110156200058f57808201518184015260208101905062000572565b838111156200059f576000848401525b50505050565b620005b0826200060a565b810181811067ffffffffffffffff82111715620005d257620005d1620005db565b5b80604052505050565b7f4e487b7100000000000000000000000000000000000000000000000000000000600052604160045260246000fd5b6000601f19601f8301169050919050565b62000626816200052e565b81146200063257600080fd5b5056fe608060405234801561001057600080fd5b506040516103f53803806103f5833981810160405281019061003291906101b0565b816000806101000a81548173ffffffffffffffffffffffffffffffffffffffff021916908373ffffffffffffffffffffffffffffffffffffffff1602179055508060019080519060200190610088929190610090565b5050506103a8565b82805461009c906102bf565b90600052602060002090601f0160209004810192826100be5760008555610105565b82601f106100d757805160ff1916838001178555610105565b82800160010185558215610105579182015b828111156101045782518255916020019190600101906100e9565b5b5090506101129190610116565b5090565b5b8082111561012f576000816000905550600101610117565b5090565b600061014661014184610229565b610204565b90508281526020810184848401111561015e57600080fd5b61016984828561028c565b509392505050565b60008151905061018081610391565b92915050565b600082601f83011261019757600080fd5b81516101a7848260208601610133565b91505092915050565b600080604083850312156101c357600080fd5b60006101d185828601610171565b925050602083015167ffffffffffffffff8111156101ee57600080fd5b6101fa85828601610186565b9150509250929050565b600061020e61021f565b905061021a82826102f1565b919050565b6000604051905090565b600067ffffffffffffffff82111561024457610243610351565b5b61024d82610380565b9050602081019050919050565b60006102658261026c565b9050919050565b600073ffffffffffffffffffffffffffffffffffffffff82169050919050565b60005b838110156102aa57808201518184015260208101905061028f565b838111156102b9576000848401525b50505050565b600060028204905060018216806102d757607f821691505b602082108114156102eb576102ea610322565b5b50919050565b6102fa82610380565b810181811067ffffffffffffffff8211171561031957610318610351565b5b80604052505050565b7f4e487b7100000000000000000000000000000000000000000000000000000000600052602260045260246000fd5b7f4e487b7100000000000000000000000000000000000000000000000000000000600052604160045260246000fd5b6000601f19601f8301169050919050565b61039a8161025a565b81146103a557600080fd5b50565b603f806103b66000396000f3fe6080604052600080fdfea2646970667358221220e3e0ed76e2e9620ebaeb12823b5405ca7c840bd31c7d017eb8f3e5689d16b7d964736f6c63430008040033a2646970667358221220f01ad707c24335f4d6d32defa588c467beca3821e7dc793726fbed5fee63a8d864736f6c63430008040033",
  "linkReferences": {},
  "deployedLinkReferences": {}
}