{
  "_format": "hh-sol-artifact-1",
  "contractName": "OrderBook",
  "sourceName": "contracts/SemanticSwap/OrderBook.sol",
  "abi": [
    {
      "inputs": [
        {
          "internalType": "uint256",
          "name": "",
          "type": "uint256"
        }
      ],
      "name": "openAsks",
      "outputs": [
        {
          "internalType": "contract Order",
          "name": "",
          "type": "address"
        }
      ],
      "stateMutability": "view",
      "type": "function"
    },
    {
      "inputs": [
        {
          "internalType": "uint256",
          "name": "",
          "type": "uint256"
        }
      ],
      "name": "openOffers",
      "outputs": [
        {
          "internalType": "contract Order",
          "name": "",
          "type": "address"
        }
      ],
      "stateMutability": "view",
      "type": "function"
    }
  ],
  "bytecode": "0x608060405234801561001057600080fd5b5061021c806100206000396000f3fe608060405234801561001057600080fd5b50600436106100365760003560e01c806391c4c6d81461003b57806397babf511461006b575b600080fd5b6100556004803603810190610050919061012e565b61009b565b6040516100629190610166565b60405180910390f35b6100856004803603810190610080919061012e565b6100da565b6040516100929190610166565b60405180910390f35b600181815481106100ab57600080fd5b906000526020600020016000915054906101000a900473ffffffffffffffffffffffffffffffffffffffff1681565b600081815481106100ea57600080fd5b906000526020600020016000915054906101000a900473ffffffffffffffffffffffffffffffffffffffff1681565b600081359050610128816101cf565b92915050565b60006020828403121561014057600080fd5b600061014e84828501610119565b91505092915050565b610160816101ab565b82525050565b600060208201905061017b6000830184610157565b92915050565b600073ffffffffffffffffffffffffffffffffffffffff82169050919050565b6000819050919050565b60006101b6826101bd565b9050919050565b60006101c882610181565b9050919050565b6101d8816101a1565b81146101e357600080fd5b5056fea2646970667358221220bd454d721e04e45952bc3bb02116b9076eba115554da44a360e79b64f49346af64736f6c63430008040033",
  "linkReferences": {},
  "deployedLinkReferences": {}
}