{
  "_format": "hh-sol-artifact-1",
  "contractName": "SemanticSwap",
  "sourceName": "contracts/SemanticSwap/SemanticSwap.sol",
  "abi": [
    {
      "inputs": [],
      "stateMutability": "nonpayable",
      "type": "constructor"
    },
    {
      "inputs": [
        {
          "internalType": "uint256",
          "name": "",
          "type": "uint256"
        }
      ],
      "name": "matchProposals",
      "outputs": [
        {
          "internalType": "contract MatchProposal",
          "name": "",
          "type": "address"
        }
      ],
      "stateMutability": "view",
      "type": "function"
    },
    {
      "inputs": [],
      "name": "orderBook",
      "outputs": [
        {
          "internalType": "contract OrderBook",
          "name": "",
          "type": "address"
        }
      ],
      "stateMutability": "view",
      "type": "function"
    },
    {
      "inputs": [
        {
          "internalType": "string",
          "name": "reason",
          "type": "string"
        },
        {
          "components": [
            {
              "internalType": "contract Order",
              "name": "producer",
              "type": "address"
            },
            {
              "internalType": "contract Order",
              "name": "consumer",
              "type": "address"
            }
          ],
          "internalType": "struct MatchLink[]",
          "name": "matchLinks",
          "type": "tuple[]"
        }
      ],
      "name": "proposeMatch",
      "outputs": [],
      "stateMutability": "nonpayable",
      "type": "function"
    }
  ],
  "bytecode": "0x608060405234801561001057600080fd5b5060405161001d9061007e565b604051809103906000f080158015610039573d6000803e3d6000fd5b506000806101000a81548173ffffffffffffffffffffffffffffffffffffffff021916908373ffffffffffffffffffffffffffffffffffffffff16021790555061008b565b610a8080610d5983390190565b610cbf8061009a6000396000f3fe60806040523480156200001157600080fd5b5060043610620000465760003560e01c8063776af5ba146200004b5780639b07e6c7146200006d578063b9e5179914620000a3575b600080fd5b62000055620000c3565b6040516200006491906200053a565b60405180910390f35b6200008b60048036038101906200008591906200048b565b620000e7565b6040516200009a91906200051d565b60405180910390f35b620000c16004803603810190620000bb91906200040f565b62000127565b005b60008054906101000a900473ffffffffffffffffffffffffffffffffffffffff1681565b60018181548110620000f857600080fd5b906000526020600020016000915054906101000a900473ffffffffffffffffffffffffffffffffffffffff1681565b6000848460405162000139906200030d565b6200014692919062000584565b604051809103906000f08015801562000163573d6000803e3d6000fd5b50905060005b83839050811015620002a2578173ffffffffffffffffffffffffffffffffffffffff166321ce8f8b858584818110620001cb577f4e487b7100000000000000000000000000000000000000000000000000000000600052603260045260246000fd5b9050604002016000016020810190620001e59190620003e3565b8686858181106200021f577f4e487b7100000000000000000000000000000000000000000000000000000000600052603260045260246000fd5b9050604002016020016020810190620002399190620003e3565b6040518363ffffffff1660e01b81526004016200025892919062000557565b600060405180830381600087803b1580156200027357600080fd5b505af115801562000288573d6000803e3d6000fd5b505050508080620002999062000694565b91505062000169565b506001819080600181540180825580915050600190039060005260206000200160009091909190916101000a81548173ffffffffffffffffffffffffffffffffffffffff021916908373ffffffffffffffffffffffffffffffffffffffff1602179055505050505050565b610533806200075783390190565b60008083601f8401126200032e57600080fd5b8235905067ffffffffffffffff8111156200034857600080fd5b6020830191508360408202830111156200036157600080fd5b9250929050565b600081359050620003798162000722565b92915050565b60008083601f8401126200039257600080fd5b8235905067ffffffffffffffff811115620003ac57600080fd5b602083019150836001820283011115620003c557600080fd5b9250929050565b600081359050620003dd816200073c565b92915050565b600060208284031215620003f657600080fd5b6000620004068482850162000368565b91505092915050565b600080600080604085870312156200042657600080fd5b600085013567ffffffffffffffff8111156200044157600080fd5b6200044f878288016200037f565b9450945050602085013567ffffffffffffffff8111156200046f57600080fd5b6200047d878288016200031b565b925092505092959194509250565b6000602082840312156200049e57600080fd5b6000620004ae84828501620003cc565b91505092915050565b620004c2816200060d565b82525050565b620004d38162000635565b82525050565b620004e4816200065d565b82525050565b6000620004f88385620005aa565b93506200050783858462000685565b620005128362000711565b840190509392505050565b6000602082019050620005346000830184620004b7565b92915050565b6000602082019050620005516000830184620004c8565b92915050565b60006040820190506200056e6000830185620004d9565b6200057d6020830184620004d9565b9392505050565b60006020820190508181036000830152620005a1818486620004ea565b90509392505050565b600082825260208201905092915050565b6000620005c882620005e3565b9050919050565b6000620005dc82620005bb565b9050919050565b600073ffffffffffffffffffffffffffffffffffffffff82169050919050565b6000819050919050565b60006200061a8262000621565b9050919050565b60006200062e82620005e3565b9050919050565b6000620006428262000649565b9050919050565b60006200065682620005e3565b9050919050565b60006200066a8262000671565b9050919050565b60006200067e82620005e3565b9050919050565b82818337600083830152505050565b6000620006a18262000603565b91507fffffffffffffffffffffffffffffffffffffffffffffffffffffffffffffffff821415620006d757620006d6620006e2565b5b600182019050919050565b7f4e487b7100000000000000000000000000000000000000000000000000000000600052601160045260246000fd5b6000601f19601f8301169050919050565b6200072d81620005cf565b81146200073957600080fd5b50565b620007478162000603565b81146200075357600080fd5b5056fe608060405234801561001057600080fd5b506040516105333803806105338339818101604052810190610032919061015a565b806000908051906020019061004892919061004f565b50506102f6565b82805461005b90610224565b90600052602060002090601f01602090048101928261007d57600085556100c4565b82601f1061009657805160ff19168380011785556100c4565b828001600101855582156100c4579182015b828111156100c35782518255916020019190600101906100a8565b5b5090506100d191906100d5565b5090565b5b808211156100ee5760008160009055506001016100d6565b5090565b6000610105610100846101c0565b61019b565b90508281526020810184848401111561011d57600080fd5b6101288482856101f1565b509392505050565b600082601f83011261014157600080fd5b81516101518482602086016100f2565b91505092915050565b60006020828403121561016c57600080fd5b600082015167ffffffffffffffff81111561018657600080fd5b61019284828501610130565b91505092915050565b60006101a56101b6565b90506101b18282610256565b919050565b6000604051905090565b600067ffffffffffffffff8211156101db576101da6102b6565b5b6101e4826102e5565b9050602081019050919050565b60005b8381101561020f5780820151818401526020810190506101f4565b8381111561021e576000848401525b50505050565b6000600282049050600182168061023c57607f821691505b602082108114156102505761024f610287565b5b50919050565b61025f826102e5565b810181811067ffffffffffffffff8211171561027e5761027d6102b6565b5b80604052505050565b7f4e487b7100000000000000000000000000000000000000000000000000000000600052602260045260246000fd5b7f4e487b7100000000000000000000000000000000000000000000000000000000600052604160045260246000fd5b6000601f19601f8301169050919050565b61022e806103056000396000f3fe608060405234801561001057600080fd5b506004361061002b5760003560e01c806321ce8f8b14610030575b600080fd5b61004a60048036038101906100459190610161565b61004c565b005b600160405180604001604052808473ffffffffffffffffffffffffffffffffffffffff1681526020018373ffffffffffffffffffffffffffffffffffffffff16815250908060018154018082558091505060019003906000526020600020906002020160009091909190915060008201518160000160006101000a81548173ffffffffffffffffffffffffffffffffffffffff021916908373ffffffffffffffffffffffffffffffffffffffff16021790555060208201518160010160006101000a81548173ffffffffffffffffffffffffffffffffffffffff021916908373ffffffffffffffffffffffffffffffffffffffff16021790555050505050565b60008135905061015b816101e1565b92915050565b6000806040838503121561017457600080fd5b60006101828582860161014c565b92505060206101938582860161014c565b9150509250929050565b60006101a8826101c1565b9050919050565b60006101ba8261019d565b9050919050565b600073ffffffffffffffffffffffffffffffffffffffff82169050919050565b6101ea816101af565b81146101f557600080fd5b5056fea264697066735822122051b22eff9cbd5ddc6721c0e1bb29195c8269cf990a9b59a6b766bf6587f5cf7164736f6c63430008040033a264697066735822122058ea3ce0609c8e223755c43714163cd90c8188eb26f580a9c054241da5d8c3ad64736f6c63430008040033608060405234801561001057600080fd5b50610a60806100206000396000f3fe60806040523480156200001157600080fd5b5060043610620000525760003560e01c806321b8571d146200005757806391c4c6d8146200007757806397babf5114620000ad578063e13b255914620000e3575b600080fd5b6200007560048036038101906200006f91906200035a565b62000103565b005b6200009560048036038101906200008f91906200039f565b620001a3565b604051620000a4919062000462565b60405180910390f35b620000cb6004803603810190620000c591906200039f565b620001e3565b604051620000da919062000462565b60405180910390f35b620001016004803603810190620000fb91906200035a565b62000223565b005b600133826040516200011590620002c3565b620001229291906200042e565b604051809103906000f0801580156200013f573d6000803e3d6000fd5b509080600181540180825580915050600190039060005260206000200160009091909190916101000a81548173ffffffffffffffffffffffffffffffffffffffff021916908373ffffffffffffffffffffffffffffffffffffffff16021790555050565b60018181548110620001b457600080fd5b906000526020600020016000915054906101000a900473ffffffffffffffffffffffffffffffffffffffff1681565b60008181548110620001f457600080fd5b906000526020600020016000915054906101000a900473ffffffffffffffffffffffffffffffffffffffff1681565b600033826040516200023590620002c3565b620002429291906200042e565b604051809103906000f0801580156200025f573d6000803e3d6000fd5b509080600181540180825580915050600190039060005260206000200160009091909190916101000a81548173ffffffffffffffffffffffffffffffffffffffff021916908373ffffffffffffffffffffffffffffffffffffffff16021790555050565b6103f5806200063683390190565b6000620002e8620002e284620004a8565b6200047f565b9050828152602081018484840111156200030157600080fd5b6200030e84828562000560565b509392505050565b600082601f8301126200032857600080fd5b81356200033a848260208601620002d1565b91505092915050565b60008135905062000354816200061b565b92915050565b6000602082840312156200036d57600080fd5b600082013567ffffffffffffffff8111156200038857600080fd5b620003968482850162000316565b91505092915050565b600060208284031215620003b257600080fd5b6000620003c28482850162000343565b91505092915050565b620003d681620004fa565b82525050565b620003e78162000538565b82525050565b6000620003fa82620004de565b620004068185620004e9565b9350620004188185602086016200056f565b62000423816200060a565b840191505092915050565b6000604082019050620004456000830185620003cb565b8181036020830152620004598184620003ed565b90509392505050565b6000602082019050620004796000830184620003dc565b92915050565b60006200048b6200049e565b9050620004998282620005a5565b919050565b6000604051905090565b600067ffffffffffffffff821115620004c657620004c5620005db565b5b620004d1826200060a565b9050602081019050919050565b600081519050919050565b600082825260208201905092915050565b600062000507826200050e565b9050919050565b600073ffffffffffffffffffffffffffffffffffffffff82169050919050565b6000819050919050565b600062000545826200054c565b9050919050565b600062000559826200050e565b9050919050565b82818337600083830152505050565b60005b838110156200058f57808201518184015260208101905062000572565b838111156200059f576000848401525b50505050565b620005b0826200060a565b810181811067ffffffffffffffff82111715620005d257620005d1620005db565b5b80604052505050565b7f4e487b7100000000000000000000000000000000000000000000000000000000600052604160045260246000fd5b6000601f19601f8301169050919050565b62000626816200052e565b81146200063257600080fd5b5056fe608060405234801561001057600080fd5b506040516103f53803806103f5833981810160405281019061003291906101b0565b816000806101000a81548173ffffffffffffffffffffffffffffffffffffffff021916908373ffffffffffffffffffffffffffffffffffffffff1602179055508060019080519060200190610088929190610090565b5050506103a8565b82805461009c906102bf565b90600052602060002090601f0160209004810192826100be5760008555610105565b82601f106100d757805160ff1916838001178555610105565b82800160010185558215610105579182015b828111156101045782518255916020019190600101906100e9565b5b5090506101129190610116565b5090565b5b8082111561012f576000816000905550600101610117565b5090565b600061014661014184610229565b610204565b90508281526020810184848401111561015e57600080fd5b61016984828561028c565b509392505050565b60008151905061018081610391565b92915050565b600082601f83011261019757600080fd5b81516101a7848260208601610133565b91505092915050565b600080604083850312156101c357600080fd5b60006101d185828601610171565b925050602083015167ffffffffffffffff8111156101ee57600080fd5b6101fa85828601610186565b9150509250929050565b600061020e61021f565b905061021a82826102f1565b919050565b6000604051905090565b600067ffffffffffffffff82111561024457610243610351565b5b61024d82610380565b9050602081019050919050565b60006102658261026c565b9050919050565b600073ffffffffffffffffffffffffffffffffffffffff82169050919050565b60005b838110156102aa57808201518184015260208101905061028f565b838111156102b9576000848401525b50505050565b600060028204905060018216806102d757607f821691505b602082108114156102eb576102ea610322565b5b50919050565b6102fa82610380565b810181811067ffffffffffffffff8211171561031957610318610351565b5b80604052505050565b7f4e487b7100000000000000000000000000000000000000000000000000000000600052602260045260246000fd5b7f4e487b7100000000000000000000000000000000000000000000000000000000600052604160045260246000fd5b6000601f19601f8301169050919050565b61039a8161025a565b81146103a557600080fd5b50565b603f806103b66000396000f3fe6080604052600080fdfea2646970667358221220e3e0ed76e2e9620ebaeb12823b5405ca7c840bd31c7d017eb8f3e5689d16b7d964736f6c63430008040033a2646970667358221220f01ad707c24335f4d6d32defa588c467beca3821e7dc793726fbed5fee63a8d864736f6c63430008040033",
  "linkReferences": {},
  "deployedLinkReferences": {}
}