{
  "_format": "hh-sol-artifact-1",
  "contractName": "SemanticSwap",
  "sourceName": "contracts/SemanticSwap/SemanticSwap.sol",
  "abi": [
    {
      "inputs": [],
      "name": "orderBook",
      "outputs": [
        {
          "internalType": "contract OrderBook",
          "name": "",
          "type": "address"
        }
      ],
      "stateMutability": "view",
      "type": "function"
    }
  ],
  "bytecode": "0x608060405234801561001057600080fd5b50610107806100206000396000f3fe6080604052348015600f57600080fd5b506004361060285760003560e01c8063776af5ba14602d575b600080fd5b60336047565b604051603e91906078565b60405180910390f35b60008054906101000a900473ffffffffffffffffffffffffffffffffffffffff1681565b60728160b1565b82525050565b6000602082019050608b6000830184606b565b92915050565b600073ffffffffffffffffffffffffffffffffffffffff82169050919050565b600060ba8260c1565b9050919050565b600060ca826091565b905091905056fea2646970667358221220f4d5de15386efadec7fb65510b337587b76cc81e7885400dd415fc9f60a351df64736f6c63430008040033",
  "linkReferences": {},
  "deployedLinkReferences": {}
}