{
  "_format": "hh-sol-artifact-1",
  "contractName": "SemanticSwap",
  "sourceName": "contracts/SemanticSwap/SemanticSwap.sol",
  "abi": [
    {
      "inputs": [],
      "stateMutability": "nonpayable",
      "type": "constructor"
    },
    {
      "inputs": [],
      "name": "orderBook",
      "outputs": [
        {
          "internalType": "contract OrderBook",
          "name": "",
          "type": "address"
        }
      ],
      "stateMutability": "view",
      "type": "function"
    }
  ],
  "bytecode": "0x608060405234801561001057600080fd5b5060405161001d9061007e565b604051809103906000f080158015610039573d6000803e3d6000fd5b506000806101000a81548173ffffffffffffffffffffffffffffffffffffffff021916908373ffffffffffffffffffffffffffffffffffffffff16021790555061008b565b61023c806101a183390190565b6101078061009a6000396000f3fe6080604052348015600f57600080fd5b506004361060285760003560e01c8063776af5ba14602d575b600080fd5b60336047565b604051603e91906078565b60405180910390f35b60008054906101000a900473ffffffffffffffffffffffffffffffffffffffff1681565b60728160b1565b82525050565b6000602082019050608b6000830184606b565b92915050565b600073ffffffffffffffffffffffffffffffffffffffff82169050919050565b600060ba8260c1565b9050919050565b600060ca826091565b905091905056fea26469706673582212206bb8b9e5feea5ae9eddae9414bc8b8907849ce36857c01b6eb44fe5b7a6af87664736f6c63430008040033608060405234801561001057600080fd5b5061021c806100206000396000f3fe608060405234801561001057600080fd5b50600436106100365760003560e01c806391c4c6d81461003b57806397babf511461006b575b600080fd5b6100556004803603810190610050919061012e565b61009b565b6040516100629190610166565b60405180910390f35b6100856004803603810190610080919061012e565b6100da565b6040516100929190610166565b60405180910390f35b600181815481106100ab57600080fd5b906000526020600020016000915054906101000a900473ffffffffffffffffffffffffffffffffffffffff1681565b600081815481106100ea57600080fd5b906000526020600020016000915054906101000a900473ffffffffffffffffffffffffffffffffffffffff1681565b600081359050610128816101cf565b92915050565b60006020828403121561014057600080fd5b600061014e84828501610119565b91505092915050565b610160816101ab565b82525050565b600060208201905061017b6000830184610157565b92915050565b600073ffffffffffffffffffffffffffffffffffffffff82169050919050565b6000819050919050565b60006101b6826101bd565b9050919050565b60006101c882610181565b9050919050565b6101d8816101a1565b81146101e357600080fd5b5056fea2646970667358221220bd454d721e04e45952bc3bb02116b9076eba115554da44a360e79b64f49346af64736f6c63430008040033",
  "linkReferences": {},
  "deployedLinkReferences": {}
}