{
  "_format": "hh-sol-artifact-1",
  "contractName": "OrderBook",
  "sourceName": "contracts/SemanticSwap/OrderBook.sol",
  "abi": [
    {
      "anonymous": false,
      "inputs": [
        {
          "indexed": false,
          "internalType": "address",
          "name": "_participant",
          "type": "address"
        },
        {
          "indexed": false,
          "internalType": "string",
          "name": "_statement",
          "type": "string"
        },
        {
          "indexed": false,
          "internalType": "contract Order",
          "name": "_order",
          "type": "address"
        }
      ],
      "name": "AskSubmitted",
      "type": "event"
    },
    {
      "anonymous": false,
      "inputs": [
        {
          "indexed": false,
          "internalType": "address",
          "name": "_participant",
          "type": "address"
        },
        {
          "indexed": false,
          "internalType": "string",
          "name": "_statement",
          "type": "string"
        },
        {
          "indexed": false,
          "internalType": "contract Order",
          "name": "_order",
          "type": "address"
        }
      ],
      "name": "OfferSubmitted",
      "type": "event"
    },
    {
      "inputs": [],
      "name": "askLength",
      "outputs": [
        {
          "internalType": "uint256",
          "name": "length",
          "type": "uint256"
        }
      ],
      "stateMutability": "view",
      "type": "function"
    },
    {
      "inputs": [
        {
          "internalType": "uint256",
          "name": "index",
          "type": "uint256"
        }
      ],
      "name": "getAsk",
      "outputs": [
        {
          "internalType": "address",
          "name": "ask",
          "type": "address"
        }
      ],
      "stateMutability": "view",
      "type": "function"
    },
    {
      "inputs": [
        {
          "internalType": "uint256",
          "name": "index",
          "type": "uint256"
        }
      ],
      "name": "getOffer",
      "outputs": [
        {
          "internalType": "address",
          "name": "offer",
          "type": "address"
        }
      ],
      "stateMutability": "view",
      "type": "function"
    },
    {
      "inputs": [],
      "name": "offerLength",
      "outputs": [
        {
          "internalType": "uint256",
          "name": "length",
          "type": "uint256"
        }
      ],
      "stateMutability": "view",
      "type": "function"
    },
    {
      "inputs": [
        {
          "internalType": "uint256",
          "name": "",
          "type": "uint256"
        }
      ],
      "name": "openAsks",
      "outputs": [
        {
          "internalType": "contract Order",
          "name": "",
          "type": "address"
        }
      ],
      "stateMutability": "view",
      "type": "function"
    },
    {
      "inputs": [
        {
          "internalType": "uint256",
          "name": "",
          "type": "uint256"
        }
      ],
      "name": "openOffers",
      "outputs": [
        {
          "internalType": "contract Order",
          "name": "",
          "type": "address"
        }
      ],
      "stateMutability": "view",
      "type": "function"
    },
    {
      "inputs": [
        {
          "internalType": "string",
          "name": "_statement",
          "type": "string"
        }
      ],
      "name": "submitAsk",
      "outputs": [],
      "stateMutability": "nonpayable",
      "type": "function"
    },
    {
      "inputs": [
        {
          "internalType": "string",
          "name": "_statement",
          "type": "string"
        }
      ],
      "name": "submitOffer",
      "outputs": [],
      "stateMutability": "nonpayable",
      "type": "function"
    }
  ],
  "bytecode": "0x608060405234801561001057600080fd5b50611318806100206000396000f3fe60806040523480156200001157600080fd5b5060043610620000945760003560e01c806391c4c6d8116200006357806391c4c6d8146200014757806397babf51146200017d578063e13b255914620001b3578063e36fe76614620001d35762000094565b806321b8571d14620000995780634579268a14620000b95780636b42fbaf14620000ef57806388b85f7a1462000125575b600080fd5b620000b76004803603810190620000b191906200088b565b620001f5565b005b620000d76004803603810190620000d1919062000915565b620003df565b604051620000e69190620009b5565b60405180910390f35b6200010d600480360381019062000107919062000915565b6200044d565b6040516200011c9190620009b5565b60405180910390f35b6200012f620004bc565b6040516200013e919062000a67565b60405180910390f35b6200016560048036038101906200015f919062000915565b620004c8565b60405162000174919062000a4a565b60405180910390f35b6200019b600480360381019062000195919062000915565b62000508565b604051620001aa919062000a4a565b60405180910390f35b620001d16004803603810190620001cb91906200088b565b62000548565b005b620001dd62000732565b604051620001ec919062000a67565b60405180910390f35b6000338260405162000207906200073f565b62000214929190620009d2565b604051809103906000f08015801562000231573d6000803e3d6000fd5b5090506001819080600181540180825580915050600190039060005260206000200160009091909190916101000a81548173ffffffffffffffffffffffffffffffffffffffff021916908373ffffffffffffffffffffffffffffffffffffffff1602179055507f594fe124d2c30c17de6a73c55a80515dea479697db2d7bad3c3409ed3f531b538173ffffffffffffffffffffffffffffffffffffffff166337a6d42b6040518163ffffffff1660e01b815260040160206040518083038186803b158015620002ff57600080fd5b505afa15801562000314573d6000803e3d6000fd5b505050506040513d601f19601f820116820180604052508101906200033a91906200085f565b8273ffffffffffffffffffffffffffffffffffffffff1663e42cb9f36040518163ffffffff1660e01b815260040160006040518083038186803b1580156200038157600080fd5b505afa15801562000396573d6000803e3d6000fd5b505050506040513d6000823e3d601f19601f82011682018060405250810190620003c19190620008d0565b83604051620003d39392919062000a06565b60405180910390a15050565b60008082815481106200041b577f4e487b7100000000000000000000000000000000000000000000000000000000600052603260045260246000fd5b9060005260206000200160009054906101000a900473ffffffffffffffffffffffffffffffffffffffff169050919050565b6000600182815481106200048a577f4e487b7100000000000000000000000000000000000000000000000000000000600052603260045260246000fd5b9060005260206000200160009054906101000a900473ffffffffffffffffffffffffffffffffffffffff169050919050565b60008080549050905090565b60018181548110620004d957600080fd5b906000526020600020016000915054906101000a900473ffffffffffffffffffffffffffffffffffffffff1681565b600081815481106200051957600080fd5b906000526020600020016000915054906101000a900473ffffffffffffffffffffffffffffffffffffffff1681565b600033826040516200055a906200073f565b62000567929190620009d2565b604051809103906000f08015801562000584573d6000803e3d6000fd5b5090506000819080600181540180825580915050600190039060005260206000200160009091909190916101000a81548173ffffffffffffffffffffffffffffffffffffffff021916908373ffffffffffffffffffffffffffffffffffffffff1602179055507fa71e1d26487988ae4e7ffa49776173ff0af1f0fffa3f9c29a7eb943dc25c45668173ffffffffffffffffffffffffffffffffffffffff166337a6d42b6040518163ffffffff1660e01b815260040160206040518083038186803b1580156200065257600080fd5b505afa15801562000667573d6000803e3d6000fd5b505050506040513d601f19601f820116820180604052508101906200068d91906200085f565b8273ffffffffffffffffffffffffffffffffffffffff1663e42cb9f36040518163ffffffff1660e01b815260040160006040518083038186803b158015620006d457600080fd5b505afa158015620006e9573d6000803e3d6000fd5b505050506040513d6000823e3d601f19601f82011682018060405250810190620007149190620008d0565b83604051620007269392919062000a06565b60405180910390a15050565b6000600180549050905090565b61068e8062000c5583390190565b6000620007646200075e8462000aad565b62000a84565b9050828152602081018484840111156200077d57600080fd5b6200078a84828562000b65565b509392505050565b6000620007a9620007a38462000aad565b62000a84565b905082815260208101848484011115620007c257600080fd5b620007cf84828562000b74565b509392505050565b600081519050620007e88162000c20565b92915050565b600082601f8301126200080057600080fd5b8135620008128482602086016200074d565b91505092915050565b600082601f8301126200082d57600080fd5b81516200083f84826020860162000792565b91505092915050565b600081359050620008598162000c3a565b92915050565b6000602082840312156200087257600080fd5b60006200088284828501620007d7565b91505092915050565b6000602082840312156200089e57600080fd5b600082013567ffffffffffffffff811115620008b957600080fd5b620008c784828501620007ee565b91505092915050565b600060208284031215620008e357600080fd5b600082015167ffffffffffffffff811115620008fe57600080fd5b6200090c848285016200081b565b91505092915050565b6000602082840312156200092857600080fd5b6000620009388482850162000848565b91505092915050565b6200094c8162000aff565b82525050565b6200095d8162000b3d565b82525050565b6000620009708262000ae3565b6200097c818562000aee565b93506200098e81856020860162000b74565b620009998162000c0f565b840191505092915050565b620009af8162000b33565b82525050565b6000602082019050620009cc600083018462000941565b92915050565b6000604082019050620009e9600083018562000941565b8181036020830152620009fd818462000963565b90509392505050565b600060608201905062000a1d600083018662000941565b818103602083015262000a31818562000963565b905062000a42604083018462000952565b949350505050565b600060208201905062000a61600083018462000952565b92915050565b600060208201905062000a7e6000830184620009a4565b92915050565b600062000a9062000aa3565b905062000a9e828262000baa565b919050565b6000604051905090565b600067ffffffffffffffff82111562000acb5762000aca62000be0565b5b62000ad68262000c0f565b9050602081019050919050565b600081519050919050565b600082825260208201905092915050565b600062000b0c8262000b13565b9050919050565b600073ffffffffffffffffffffffffffffffffffffffff82169050919050565b6000819050919050565b600062000b4a8262000b51565b9050919050565b600062000b5e8262000b13565b9050919050565b82818337600083830152505050565b60005b8381101562000b9457808201518184015260208101905062000b77565b8381111562000ba4576000848401525b50505050565b62000bb58262000c0f565b810181811067ffffffffffffffff8211171562000bd75762000bd662000be0565b5b80604052505050565b7f4e487b7100000000000000000000000000000000000000000000000000000000600052604160045260246000fd5b6000601f19601f8301169050919050565b62000c2b8162000aff565b811462000c3757600080fd5b50565b62000c458162000b33565b811462000c5157600080fd5b5056fe608060405234801561001057600080fd5b5060405161068e38038061068e833981810160405281019061003291906101b0565b816000806101000a81548173ffffffffffffffffffffffffffffffffffffffff021916908373ffffffffffffffffffffffffffffffffffffffff1602179055508060019080519060200190610088929190610090565b5050506103a8565b82805461009c906102bf565b90600052602060002090601f0160209004810192826100be5760008555610105565b82601f106100d757805160ff1916838001178555610105565b82800160010185558215610105579182015b828111156101045782518255916020019190600101906100e9565b5b5090506101129190610116565b5090565b5b8082111561012f576000816000905550600101610117565b5090565b600061014661014184610229565b610204565b90508281526020810184848401111561015e57600080fd5b61016984828561028c565b509392505050565b60008151905061018081610391565b92915050565b600082601f83011261019757600080fd5b81516101a7848260208601610133565b91505092915050565b600080604083850312156101c357600080fd5b60006101d185828601610171565b925050602083015167ffffffffffffffff8111156101ee57600080fd5b6101fa85828601610186565b9150509250929050565b600061020e61021f565b905061021a82826102f1565b919050565b6000604051905090565b600067ffffffffffffffff82111561024457610243610351565b5b61024d82610380565b9050602081019050919050565b60006102658261026c565b9050919050565b600073ffffffffffffffffffffffffffffffffffffffff82169050919050565b60005b838110156102aa57808201518184015260208101905061028f565b838111156102b9576000848401525b50505050565b600060028204905060018216806102d757607f821691505b602082108114156102eb576102ea610322565b5b50919050565b6102fa82610380565b810181811067ffffffffffffffff8211171561031957610318610351565b5b80604052505050565b7f4e487b7100000000000000000000000000000000000000000000000000000000600052602260045260246000fd5b7f4e487b7100000000000000000000000000000000000000000000000000000000600052604160045260246000fd5b6000601f19601f8301169050919050565b61039a8161025a565b81146103a557600080fd5b50565b6102d7806103b76000396000f3fe608060405234801561001057600080fd5b50600436106100365760003560e01c806337a6d42b1461003b578063e42cb9f314610059575b600080fd5b610043610077565b6040516100509190610171565b60405180910390f35b61006161009b565b60405161006e919061018c565b60405180910390f35b60008054906101000a900473ffffffffffffffffffffffffffffffffffffffff1681565b600180546100a89061022f565b80601f01602080910402602001604051908101604052809291908181526020018280546100d49061022f565b80156101215780601f106100f657610100808354040283529160200191610121565b820191906000526020600020905b81548152906001019060200180831161010457829003601f168201915b505050505081565b610132816101ca565b82525050565b6000610143826101ae565b61014d81856101b9565b935061015d8185602086016101fc565b61016681610290565b840191505092915050565b60006020820190506101866000830184610129565b92915050565b600060208201905081810360008301526101a68184610138565b905092915050565b600081519050919050565b600082825260208201905092915050565b60006101d5826101dc565b9050919050565b600073ffffffffffffffffffffffffffffffffffffffff82169050919050565b60005b8381101561021a5780820151818401526020810190506101ff565b83811115610229576000848401525b50505050565b6000600282049050600182168061024757607f821691505b6020821081141561025b5761025a610261565b5b50919050565b7f4e487b7100000000000000000000000000000000000000000000000000000000600052602260045260246000fd5b6000601f19601f830116905091905056fea26469706673582212202a2f4ed147b7a2fb10dbb5cb2cde1c40b91531230b1743f096775b671ec194f364736f6c63430008040033a264697066735822122081fabf57d9097d30c2a29056f60fdf7c6a09cc2d0a2964455bcbe25df219ede264736f6c63430008040033",
  "linkReferences": {},
  "deployedLinkReferences": {}
}