{
  "_format": "hh-sol-artifact-1",
  "contractName": "Order",
  "sourceName": "contracts/SemanticSwap/Order.sol",
  "abi": [
    {
      "inputs": [
        {
          "internalType": "address",
          "name": "_participant",
          "type": "address"
        },
        {
          "internalType": "string",
          "name": "_statement",
          "type": "string"
        },
        {
          "internalType": "contract IMatchListener",
          "name": "_matchListener",
          "type": "address"
        }
      ],
      "stateMutability": "nonpayable",
      "type": "constructor"
    },
    {
      "inputs": [],
      "name": "matchListener",
      "outputs": [
        {
          "internalType": "contract IMatchListener",
          "name": "",
          "type": "address"
        }
      ],
      "stateMutability": "view",
      "type": "function"
    },
    {
      "inputs": [],
      "name": "participant",
      "outputs": [
        {
          "internalType": "address",
          "name": "",
          "type": "address"
        }
      ],
      "stateMutability": "view",
      "type": "function"
    },
    {
      "inputs": [],
      "name": "statement",
      "outputs": [
        {
          "internalType": "string",
          "name": "",
          "type": "string"
        }
      ],
      "stateMutability": "view",
      "type": "function"
    }
  ],
  "bytecode": "0x608060405234801561001057600080fd5b506040516107be3803806107be83398181016040528101906100329190610207565b826000806101000a81548173ffffffffffffffffffffffffffffffffffffffff021916908373ffffffffffffffffffffffffffffffffffffffff16021790555081600190805190602001906100889291906100d2565b5080600260006101000a81548173ffffffffffffffffffffffffffffffffffffffff021916908373ffffffffffffffffffffffffffffffffffffffff16021790555050505061043b565b8280546100de9061033b565b90600052602060002090601f0160209004810192826101005760008555610147565b82601f1061011957805160ff1916838001178555610147565b82800160010185558215610147579182015b8281111561014657825182559160200191906001019061012b565b5b5090506101549190610158565b5090565b5b80821115610171576000816000905550600101610159565b5090565b600061018861018384610293565b61026e565b9050828152602081018484840111156101a057600080fd5b6101ab848285610308565b509392505050565b6000815190506101c28161040d565b92915050565b6000815190506101d781610424565b92915050565b600082601f8301126101ee57600080fd5b81516101fe848260208601610175565b91505092915050565b60008060006060848603121561021c57600080fd5b600061022a868287016101b3565b935050602084015167ffffffffffffffff81111561024757600080fd5b610253868287016101dd565b9250506040610264868287016101c8565b9150509250925092565b6000610278610289565b9050610284828261036d565b919050565b6000604051905090565b600067ffffffffffffffff8211156102ae576102ad6103cd565b5b6102b7826103fc565b9050602081019050919050565b60006102cf826102e8565b9050919050565b60006102e1826102c4565b9050919050565b600073ffffffffffffffffffffffffffffffffffffffff82169050919050565b60005b8381101561032657808201518184015260208101905061030b565b83811115610335576000848401525b50505050565b6000600282049050600182168061035357607f821691505b602082108114156103675761036661039e565b5b50919050565b610376826103fc565b810181811067ffffffffffffffff82111715610395576103946103cd565b5b80604052505050565b7f4e487b7100000000000000000000000000000000000000000000000000000000600052602260045260246000fd5b7f4e487b7100000000000000000000000000000000000000000000000000000000600052604160045260246000fd5b6000601f19601f8301169050919050565b610416816102c4565b811461042157600080fd5b50565b61042d816102d6565b811461043857600080fd5b50565b6103748061044a6000396000f3fe608060405234801561001057600080fd5b50600436106100415760003560e01c806337a6d42b14610046578063606303e414610064578063e42cb9f314610082575b600080fd5b61004e6100a0565b60405161005b91906101cf565b60405180910390f35b61006c6100c4565b60405161007991906101ea565b60405180910390f35b61008a6100ea565b6040516100979190610205565b60405180910390f35b60008054906101000a900473ffffffffffffffffffffffffffffffffffffffff1681565b600260009054906101000a900473ffffffffffffffffffffffffffffffffffffffff1681565b600180546100f7906102cc565b80601f0160208091040260200160405190810160405280929190818152602001828054610123906102cc565b80156101705780601f1061014557610100808354040283529160200191610170565b820191906000526020600020905b81548152906001019060200180831161015357829003601f168201915b505050505081565b61018181610243565b82525050565b61019081610275565b82525050565b60006101a182610227565b6101ab8185610232565b93506101bb818560208601610299565b6101c48161032d565b840191505092915050565b60006020820190506101e46000830184610178565b92915050565b60006020820190506101ff6000830184610187565b92915050565b6000602082019050818103600083015261021f8184610196565b905092915050565b600081519050919050565b600082825260208201905092915050565b600061024e82610255565b9050919050565b600073ffffffffffffffffffffffffffffffffffffffff82169050919050565b600061028082610287565b9050919050565b600061029282610255565b9050919050565b60005b838110156102b757808201518184015260208101905061029c565b838111156102c6576000848401525b50505050565b600060028204905060018216806102e457607f821691505b602082108114156102f8576102f76102fe565b5b50919050565b7f4e487b7100000000000000000000000000000000000000000000000000000000600052602260045260246000fd5b6000601f19601f830116905091905056fea264697066735822122053a90b210d9ae7c51b2aad1d6dcec5e3041b25c5aca01624dc3b27a95939800164736f6c63430008040033",
  "linkReferences": {},
  "deployedLinkReferences": {}
}