{
  "_format": "hh-sol-artifact-1",
  "contractName": "OrderBook",
  "sourceName": "contracts/SemanticSwap/OrderBook.sol",
  "abi": [
    {
      "anonymous": false,
      "inputs": [
        {
          "indexed": false,
          "internalType": "address",
          "name": "_participant",
          "type": "address"
        },
        {
          "indexed": false,
          "internalType": "string",
          "name": "_statement",
          "type": "string"
        },
        {
          "indexed": false,
          "internalType": "contract Order",
          "name": "_order",
          "type": "address"
        }
      ],
      "name": "AskSubmitted",
      "type": "event"
    },
    {
      "anonymous": false,
      "inputs": [
        {
          "indexed": false,
          "internalType": "address",
          "name": "_participant",
          "type": "address"
        },
        {
          "indexed": false,
          "internalType": "string",
          "name": "_statement",
          "type": "string"
        },
        {
          "indexed": false,
          "internalType": "contract Order",
          "name": "_order",
          "type": "address"
        }
      ],
      "name": "OfferSubmitted",
      "type": "event"
    },
    {
      "inputs": [],
      "name": "askLength",
      "outputs": [
        {
          "internalType": "uint256",
          "name": "length",
          "type": "uint256"
        }
      ],
      "stateMutability": "view",
      "type": "function"
    },
    {
      "inputs": [
        {
          "internalType": "uint256",
          "name": "index",
          "type": "uint256"
        }
      ],
      "name": "getAsk",
      "outputs": [
        {
          "internalType": "address",
          "name": "ask",
          "type": "address"
        }
      ],
      "stateMutability": "view",
      "type": "function"
    },
    {
      "inputs": [
        {
          "internalType": "uint256",
          "name": "index",
          "type": "uint256"
        }
      ],
      "name": "getOffer",
      "outputs": [
        {
          "internalType": "address",
          "name": "offer",
          "type": "address"
        }
      ],
      "stateMutability": "view",
      "type": "function"
    },
    {
      "inputs": [],
      "name": "offerLength",
      "outputs": [
        {
          "internalType": "uint256",
          "name": "length",
          "type": "uint256"
        }
      ],
      "stateMutability": "view",
      "type": "function"
    },
    {
      "inputs": [
        {
          "internalType": "uint256",
          "name": "",
          "type": "uint256"
        }
      ],
      "name": "openAsks",
      "outputs": [
        {
          "internalType": "contract Order",
          "name": "",
          "type": "address"
        }
      ],
      "stateMutability": "view",
      "type": "function"
    },
    {
      "inputs": [
        {
          "internalType": "uint256",
          "name": "",
          "type": "uint256"
        }
      ],
      "name": "openOffers",
      "outputs": [
        {
          "internalType": "contract Order",
          "name": "",
          "type": "address"
        }
      ],
      "stateMutability": "view",
      "type": "function"
    },
    {
      "inputs": [
        {
          "internalType": "string",
          "name": "_statement",
          "type": "string"
        },
        {
          "internalType": "contract IMatchListener",
          "name": "_matchListener",
          "type": "address"
        }
      ],
      "name": "submitAsk",
      "outputs": [],
      "stateMutability": "nonpayable",
      "type": "function"
    },
    {
      "inputs": [
        {
          "internalType": "string",
          "name": "_statement",
          "type": "string"
        },
        {
          "internalType": "contract IMatchListener",
          "name": "_matchListener",
          "type": "address"
        }
      ],
      "name": "submitOffer",
      "outputs": [],
      "stateMutability": "nonpayable",
      "type": "function"
    }
  ],
  "bytecode": "0x608060405234801561001057600080fd5b506114f1806100206000396000f3fe60806040523480156200001157600080fd5b5060043610620000945760003560e01c806388b85f7a116200006357806388b85f7a146200014557806391c4c6d8146200016757806397babf51146200019d578063e36fe76614620001d35762000094565b806306496bef14620000995780634579268a14620000b957806365c8ee2f14620000ef5780636b42fbaf146200010f575b600080fd5b620000b76004803603810190620000b19190620008ed565b620001f5565b005b620000d76004803603810190620000d1919062000947565b620003e2565b604051620000e69190620009f8565b60405180910390f35b6200010d6004803603810190620001079190620008ed565b62000450565b005b6200012d600480360381019062000127919062000947565b6200063d565b6040516200013c9190620009f8565b60405180910390f35b6200014f620006ac565b6040516200015e919062000aba565b60405180910390f35b6200018560048036038101906200017f919062000947565b620006b8565b60405162000194919062000a9d565b60405180910390f35b620001bb6004803603810190620001b5919062000947565b620006f8565b604051620001ca919062000a9d565b60405180910390f35b620001dd62000738565b604051620001ec919062000aba565b60405180910390f35b6000338383604051620002089062000745565b620002169392919062000a15565b604051809103906000f08015801562000233573d6000803e3d6000fd5b5090506001819080600181540180825580915050600190039060005260206000200160009091909190916101000a81548173ffffffffffffffffffffffffffffffffffffffff021916908373ffffffffffffffffffffffffffffffffffffffff1602179055507f594fe124d2c30c17de6a73c55a80515dea479697db2d7bad3c3409ed3f531b538173ffffffffffffffffffffffffffffffffffffffff166337a6d42b6040518163ffffffff1660e01b815260040160206040518083038186803b1580156200030157600080fd5b505afa15801562000316573d6000803e3d6000fd5b505050506040513d601f19601f820116820180604052508101906200033c91906200087c565b8273ffffffffffffffffffffffffffffffffffffffff1663e42cb9f36040518163ffffffff1660e01b815260040160006040518083038186803b1580156200038357600080fd5b505afa15801562000398573d6000803e3d6000fd5b505050506040513d6000823e3d601f19601f82011682018060405250810190620003c39190620008a8565b83604051620003d59392919062000a59565b60405180910390a1505050565b60008082815481106200041e577f4e487b7100000000000000000000000000000000000000000000000000000000600052603260045260246000fd5b9060005260206000200160009054906101000a900473ffffffffffffffffffffffffffffffffffffffff169050919050565b6000338383604051620004639062000745565b620004719392919062000a15565b604051809103906000f0801580156200048e573d6000803e3d6000fd5b5090506000819080600181540180825580915050600190039060005260206000200160009091909190916101000a81548173ffffffffffffffffffffffffffffffffffffffff021916908373ffffffffffffffffffffffffffffffffffffffff1602179055507fa71e1d26487988ae4e7ffa49776173ff0af1f0fffa3f9c29a7eb943dc25c45668173ffffffffffffffffffffffffffffffffffffffff166337a6d42b6040518163ffffffff1660e01b815260040160206040518083038186803b1580156200055c57600080fd5b505afa15801562000571573d6000803e3d6000fd5b505050506040513d601f19601f820116820180604052508101906200059791906200087c565b8273ffffffffffffffffffffffffffffffffffffffff1663e42cb9f36040518163ffffffff1660e01b815260040160006040518083038186803b158015620005de57600080fd5b505afa158015620005f3573d6000803e3d6000fd5b505050506040513d6000823e3d601f19601f820116820180604052508101906200061e9190620008a8565b83604051620006309392919062000a59565b60405180910390a1505050565b6000600182815481106200067a577f4e487b7100000000000000000000000000000000000000000000000000000000600052603260045260246000fd5b9060005260206000200160009054906101000a900473ffffffffffffffffffffffffffffffffffffffff169050919050565b60008080549050905090565b60018181548110620006c957600080fd5b906000526020600020016000915054906101000a900473ffffffffffffffffffffffffffffffffffffffff1681565b600081815481106200070957600080fd5b906000526020600020016000915054906101000a900473ffffffffffffffffffffffffffffffffffffffff1681565b6000600180549050905090565b6107be8062000cfe83390190565b60006200076a620007648462000b00565b62000ad7565b9050828152602081018484840111156200078357600080fd5b6200079084828562000bf4565b509392505050565b6000620007af620007a98462000b00565b62000ad7565b905082815260208101848484011115620007c857600080fd5b620007d584828562000c03565b509392505050565b600081519050620007ee8162000caf565b92915050565b600081359050620008058162000cc9565b92915050565b600082601f8301126200081d57600080fd5b81356200082f84826020860162000753565b91505092915050565b600082601f8301126200084a57600080fd5b81516200085c84826020860162000798565b91505092915050565b600081359050620008768162000ce3565b92915050565b6000602082840312156200088f57600080fd5b60006200089f84828501620007dd565b91505092915050565b600060208284031215620008bb57600080fd5b600082015167ffffffffffffffff811115620008d657600080fd5b620008e48482850162000838565b91505092915050565b600080604083850312156200090157600080fd5b600083013567ffffffffffffffff8111156200091c57600080fd5b6200092a858286016200080b565b92505060206200093d85828601620007f4565b9150509250929050565b6000602082840312156200095a57600080fd5b60006200096a8482850162000865565b91505092915050565b6200097e8162000b52565b82525050565b6200098f8162000ba4565b82525050565b620009a08162000bcc565b82525050565b6000620009b38262000b36565b620009bf818562000b41565b9350620009d181856020860162000c03565b620009dc8162000c9e565b840191505092915050565b620009f28162000b9a565b82525050565b600060208201905062000a0f600083018462000973565b92915050565b600060608201905062000a2c600083018662000973565b818103602083015262000a408185620009a6565b905062000a51604083018462000984565b949350505050565b600060608201905062000a70600083018662000973565b818103602083015262000a848185620009a6565b905062000a95604083018462000995565b949350505050565b600060208201905062000ab4600083018462000995565b92915050565b600060208201905062000ad16000830184620009e7565b92915050565b600062000ae362000af6565b905062000af1828262000c39565b919050565b6000604051905090565b600067ffffffffffffffff82111562000b1e5762000b1d62000c6f565b5b62000b298262000c9e565b9050602081019050919050565b600081519050919050565b600082825260208201905092915050565b600062000b5f8262000b7a565b9050919050565b600062000b738262000b52565b9050919050565b600073ffffffffffffffffffffffffffffffffffffffff82169050919050565b6000819050919050565b600062000bb18262000bb8565b9050919050565b600062000bc58262000b7a565b9050919050565b600062000bd98262000be0565b9050919050565b600062000bed8262000b7a565b9050919050565b82818337600083830152505050565b60005b8381101562000c2357808201518184015260208101905062000c06565b8381111562000c33576000848401525b50505050565b62000c448262000c9e565b810181811067ffffffffffffffff8211171562000c665762000c6562000c6f565b5b80604052505050565b7f4e487b7100000000000000000000000000000000000000000000000000000000600052604160045260246000fd5b6000601f19601f8301169050919050565b62000cba8162000b52565b811462000cc657600080fd5b50565b62000cd48162000b66565b811462000ce057600080fd5b50565b62000cee8162000b9a565b811462000cfa57600080fd5b5056fe608060405234801561001057600080fd5b506040516107be3803806107be83398181016040528101906100329190610207565b826000806101000a81548173ffffffffffffffffffffffffffffffffffffffff021916908373ffffffffffffffffffffffffffffffffffffffff16021790555081600190805190602001906100889291906100d2565b5080600260006101000a81548173ffffffffffffffffffffffffffffffffffffffff021916908373ffffffffffffffffffffffffffffffffffffffff16021790555050505061043b565b8280546100de9061033b565b90600052602060002090601f0160209004810192826101005760008555610147565b82601f1061011957805160ff1916838001178555610147565b82800160010185558215610147579182015b8281111561014657825182559160200191906001019061012b565b5b5090506101549190610158565b5090565b5b80821115610171576000816000905550600101610159565b5090565b600061018861018384610293565b61026e565b9050828152602081018484840111156101a057600080fd5b6101ab848285610308565b509392505050565b6000815190506101c28161040d565b92915050565b6000815190506101d781610424565b92915050565b600082601f8301126101ee57600080fd5b81516101fe848260208601610175565b91505092915050565b60008060006060848603121561021c57600080fd5b600061022a868287016101b3565b935050602084015167ffffffffffffffff81111561024757600080fd5b610253868287016101dd565b9250506040610264868287016101c8565b9150509250925092565b6000610278610289565b9050610284828261036d565b919050565b6000604051905090565b600067ffffffffffffffff8211156102ae576102ad6103cd565b5b6102b7826103fc565b9050602081019050919050565b60006102cf826102e8565b9050919050565b60006102e1826102c4565b9050919050565b600073ffffffffffffffffffffffffffffffffffffffff82169050919050565b60005b8381101561032657808201518184015260208101905061030b565b83811115610335576000848401525b50505050565b6000600282049050600182168061035357607f821691505b602082108114156103675761036661039e565b5b50919050565b610376826103fc565b810181811067ffffffffffffffff82111715610395576103946103cd565b5b80604052505050565b7f4e487b7100000000000000000000000000000000000000000000000000000000600052602260045260246000fd5b7f4e487b7100000000000000000000000000000000000000000000000000000000600052604160045260246000fd5b6000601f19601f8301169050919050565b610416816102c4565b811461042157600080fd5b50565b61042d816102d6565b811461043857600080fd5b50565b6103748061044a6000396000f3fe608060405234801561001057600080fd5b50600436106100415760003560e01c806337a6d42b14610046578063606303e414610064578063e42cb9f314610082575b600080fd5b61004e6100a0565b60405161005b91906101cf565b60405180910390f35b61006c6100c4565b60405161007991906101ea565b60405180910390f35b61008a6100ea565b6040516100979190610205565b60405180910390f35b60008054906101000a900473ffffffffffffffffffffffffffffffffffffffff1681565b600260009054906101000a900473ffffffffffffffffffffffffffffffffffffffff1681565b600180546100f7906102cc565b80601f0160208091040260200160405190810160405280929190818152602001828054610123906102cc565b80156101705780601f1061014557610100808354040283529160200191610170565b820191906000526020600020905b81548152906001019060200180831161015357829003601f168201915b505050505081565b61018181610243565b82525050565b61019081610275565b82525050565b60006101a182610227565b6101ab8185610232565b93506101bb818560208601610299565b6101c48161032d565b840191505092915050565b60006020820190506101e46000830184610178565b92915050565b60006020820190506101ff6000830184610187565b92915050565b6000602082019050818103600083015261021f8184610196565b905092915050565b600081519050919050565b600082825260208201905092915050565b600061024e82610255565b9050919050565b600073ffffffffffffffffffffffffffffffffffffffff82169050919050565b600061028082610287565b9050919050565b600061029282610255565b9050919050565b60005b838110156102b757808201518184015260208101905061029c565b838111156102c6576000848401525b50505050565b600060028204905060018216806102e457607f821691505b602082108114156102f8576102f76102fe565b5b50919050565b7f4e487b7100000000000000000000000000000000000000000000000000000000600052602260045260246000fd5b6000601f19601f830116905091905056fea264697066735822122053a90b210d9ae7c51b2aad1d6dcec5e3041b25c5aca01624dc3b27a95939800164736f6c63430008040033a2646970667358221220b86a584b04561b091442a3b506dee3c13049ef3f77950926696286dc6141618364736f6c63430008040033",
  "linkReferences": {},
  "deployedLinkReferences": {}
}