{
  "_format": "hh-sol-artifact-1",
  "contractName": "SemanticSwap",
  "sourceName": "contracts/SemanticSwap/SemanticSwap.sol",
  "abi": [
    {
      "inputs": [],
      "stateMutability": "nonpayable",
      "type": "constructor"
    },
    {
      "inputs": [
        {
          "internalType": "address",
          "name": "user",
          "type": "address"
        }
      ],
      "name": "listMatchProposals",
      "outputs": [
        {
          "internalType": "contract MatchProposal[]",
          "name": "proposals",
          "type": "address[]"
        }
      ],
      "stateMutability": "view",
      "type": "function"
    },
    {
      "inputs": [
        {
          "internalType": "uint256",
          "name": "",
          "type": "uint256"
        }
      ],
      "name": "matchProposals",
      "outputs": [
        {
          "internalType": "contract MatchProposal",
          "name": "",
          "type": "address"
        }
      ],
      "stateMutability": "view",
      "type": "function"
    },
    {
      "inputs": [],
      "name": "orderBook",
      "outputs": [
        {
          "internalType": "contract OrderBook",
          "name": "",
          "type": "address"
        }
      ],
      "stateMutability": "view",
      "type": "function"
    },
    {
      "inputs": [
        {
          "internalType": "string",
          "name": "reason",
          "type": "string"
        },
        {
          "components": [
            {
              "internalType": "contract Order",
              "name": "producer",
              "type": "address"
            },
            {
              "internalType": "contract Order",
              "name": "consumer",
              "type": "address"
            }
          ],
          "internalType": "struct MatchLink[]",
          "name": "matchLinks",
          "type": "tuple[]"
        }
      ],
      "name": "proposeMatch",
      "outputs": [],
      "stateMutability": "nonpayable",
      "type": "function"
    }
  ],
  "bytecode": "0x608060405234801561001057600080fd5b5060405161001d9061007e565b604051809103906000f080158015610039573d6000803e3d6000fd5b506000806101000a81548173ffffffffffffffffffffffffffffffffffffffff021916908373ffffffffffffffffffffffffffffffffffffffff16021790555061008b565b611511806115a483390190565b61150a8061009a6000396000f3fe60806040523480156200001157600080fd5b5060043610620000525760003560e01c8063776af5ba14620000575780639b07e6c71462000079578063b7a2bc0e14620000af578063b9e5179914620000e5575b600080fd5b6200006162000105565b60405162000070919062000d04565b60405180910390f35b62000097600480360381019062000091919062000b6f565b62000129565b604051620000a6919062000cba565b60405180910390f35b620000cd6004803603810190620000c7919062000a43565b62000169565b604051620000dc919062000c96565b60405180910390f35b620001036004803603810190620000fd919062000af3565b62000238565b005b60008054906101000a900473ffffffffffffffffffffffffffffffffffffffff1681565b600181815481106200013a57600080fd5b906000526020600020016000915054906101000a900473ffffffffffffffffffffffffffffffffffffffff1681565b6060600260008373ffffffffffffffffffffffffffffffffffffffff1673ffffffffffffffffffffffffffffffffffffffff1681526020019081526020016000208054806020026020016040519081016040528092919081815260200182805480156200022c57602002820191906000526020600020905b8160009054906101000a900473ffffffffffffffffffffffffffffffffffffffff1673ffffffffffffffffffffffffffffffffffffffff1681526020019060010190808311620001e1575b50505050509050919050565b600084846040516200024a9062000928565b6200025792919062000d4e565b604051809103906000f08015801562000274573d6000803e3d6000fd5b50905060005b8383905081101562000601576000848483818110620002c2577f4e487b7100000000000000000000000000000000000000000000000000000000600052603260045260246000fd5b9050604002016000016020810190620002dc919062000ac7565b905060008585848181106200031a577f4e487b7100000000000000000000000000000000000000000000000000000000600052603260045260246000fd5b905060400201602001602081019062000334919062000ac7565b9050600260008373ffffffffffffffffffffffffffffffffffffffff166337a6d42b6040518163ffffffff1660e01b815260040160206040518083038186803b1580156200038157600080fd5b505afa15801562000396573d6000803e3d6000fd5b505050506040513d601f19601f82011682018060405250810190620003bc919062000a6f565b73ffffffffffffffffffffffffffffffffffffffff1673ffffffffffffffffffffffffffffffffffffffff168152602001908152602001600020849080600181540180825580915050600190039060005260206000200160009091909190916101000a81548173ffffffffffffffffffffffffffffffffffffffff021916908373ffffffffffffffffffffffffffffffffffffffff160217905550600260008273ffffffffffffffffffffffffffffffffffffffff166337a6d42b6040518163ffffffff1660e01b815260040160206040518083038186803b158015620004a257600080fd5b505afa158015620004b7573d6000803e3d6000fd5b505050506040513d601f19601f82011682018060405250810190620004dd919062000a6f565b73ffffffffffffffffffffffffffffffffffffffff1673ffffffffffffffffffffffffffffffffffffffff168152602001908152602001600020849080600181540180825580915050600190039060005260206000200160009091909190916101000a81548173ffffffffffffffffffffffffffffffffffffffff021916908373ffffffffffffffffffffffffffffffffffffffff1602179055508373ffffffffffffffffffffffffffffffffffffffff166321ce8f8b83836040518363ffffffff1660e01b8152600401620005b592919062000d21565b600060405180830381600087803b158015620005d057600080fd5b505af1158015620005e5573d6000803e3d6000fd5b5050505050508080620005f89062000eab565b9150506200027a565b506001819080600181540180825580915050600190039060005260206000200160009091909190916101000a81548173ffffffffffffffffffffffffffffffffffffffff021916908373ffffffffffffffffffffffffffffffffffffffff16021790555060005b8383905081101562000920576000848483818110620006b0577f4e487b7100000000000000000000000000000000000000000000000000000000600052603260045260246000fd5b9050604002016000016020810190620006ca919062000ac7565b9050600085858481811062000708577f4e487b7100000000000000000000000000000000000000000000000000000000600052603260045260246000fd5b905060400201602001602081019062000722919062000ac7565b90508173ffffffffffffffffffffffffffffffffffffffff1663606303e46040518163ffffffff1660e01b815260040160206040518083038186803b1580156200076b57600080fd5b505afa15801562000780573d6000803e3d6000fd5b505050506040513d601f19601f82011682018060405250810190620007a6919062000a9b565b73ffffffffffffffffffffffffffffffffffffffff166313d620d485846040518363ffffffff1660e01b8152600401620007e292919062000cd7565b600060405180830381600087803b158015620007fd57600080fd5b505af115801562000812573d6000803e3d6000fd5b505050508073ffffffffffffffffffffffffffffffffffffffff1663606303e46040518163ffffffff1660e01b815260040160206040518083038186803b1580156200085d57600080fd5b505afa15801562000872573d6000803e3d6000fd5b505050506040513d601f19601f8201168201806040525081019062000898919062000a9b565b73ffffffffffffffffffffffffffffffffffffffff166313d620d485836040518363ffffffff1660e01b8152600401620008d492919062000cd7565b600060405180830381600087803b158015620008ef57600080fd5b505af115801562000904573d6000803e3d6000fd5b5050505050508080620009179062000eab565b91505062000668565b505050505050565b6105338062000fa283390190565b600081359050620009478162000f39565b92915050565b6000815190506200095e8162000f39565b92915050565b60008083601f8401126200097757600080fd5b8235905067ffffffffffffffff8111156200099157600080fd5b602083019150836040820283011115620009aa57600080fd5b9250929050565b600081519050620009c28162000f53565b92915050565b600081359050620009d98162000f6d565b92915050565b60008083601f840112620009f257600080fd5b8235905067ffffffffffffffff81111562000a0c57600080fd5b60208301915083600182028301111562000a2557600080fd5b9250929050565b60008135905062000a3d8162000f87565b92915050565b60006020828403121562000a5657600080fd5b600062000a668482850162000936565b91505092915050565b60006020828403121562000a8257600080fd5b600062000a92848285016200094d565b91505092915050565b60006020828403121562000aae57600080fd5b600062000abe84828501620009b1565b91505092915050565b60006020828403121562000ada57600080fd5b600062000aea84828501620009c8565b91505092915050565b6000806000806040858703121562000b0a57600080fd5b600085013567ffffffffffffffff81111562000b2557600080fd5b62000b3387828801620009df565b9450945050602085013567ffffffffffffffff81111562000b5357600080fd5b62000b618782880162000964565b925092505092959194509250565b60006020828403121562000b8257600080fd5b600062000b928482850162000a2c565b91505092915050565b600062000ba9838362000c1f565b60208301905092915050565b600062000bc28262000d84565b62000bce818562000d9c565b935062000bdb8362000d74565b8060005b8381101562000c1257815162000bf6888262000b9b565b975062000c038362000d8f565b92505060018101905062000bdf565b5085935050505092915050565b62000c2a8162000e24565b82525050565b62000c3b8162000e24565b82525050565b62000c4c8162000e4c565b82525050565b62000c5d8162000e74565b82525050565b600062000c71838562000dad565b935062000c8083858462000e9c565b62000c8b8362000f28565b840190509392505050565b6000602082019050818103600083015262000cb2818462000bb5565b905092915050565b600060208201905062000cd1600083018462000c30565b92915050565b600060408201905062000cee600083018562000c30565b62000cfd602083018462000c52565b9392505050565b600060208201905062000d1b600083018462000c41565b92915050565b600060408201905062000d38600083018562000c52565b62000d47602083018462000c52565b9392505050565b6000602082019050818103600083015262000d6b81848662000c63565b90509392505050565b6000819050602082019050919050565b600081519050919050565b6000602082019050919050565b600082825260208201905092915050565b600082825260208201905092915050565b600062000dcb8262000dfa565b9050919050565b600062000ddf8262000dbe565b9050919050565b600062000df38262000dbe565b9050919050565b600073ffffffffffffffffffffffffffffffffffffffff82169050919050565b6000819050919050565b600062000e318262000e38565b9050919050565b600062000e458262000dfa565b9050919050565b600062000e598262000e60565b9050919050565b600062000e6d8262000dfa565b9050919050565b600062000e818262000e88565b9050919050565b600062000e958262000dfa565b9050919050565b82818337600083830152505050565b600062000eb88262000e1a565b91507fffffffffffffffffffffffffffffffffffffffffffffffffffffffffffffffff82141562000eee5762000eed62000ef9565b5b600182019050919050565b7f4e487b7100000000000000000000000000000000000000000000000000000000600052601160045260246000fd5b6000601f19601f8301169050919050565b62000f448162000dbe565b811462000f5057600080fd5b50565b62000f5e8162000dd2565b811462000f6a57600080fd5b50565b62000f788162000de6565b811462000f8457600080fd5b50565b62000f928162000e1a565b811462000f9e57600080fd5b5056fe608060405234801561001057600080fd5b506040516105333803806105338339818101604052810190610032919061015a565b806000908051906020019061004892919061004f565b50506102f6565b82805461005b90610224565b90600052602060002090601f01602090048101928261007d57600085556100c4565b82601f1061009657805160ff19168380011785556100c4565b828001600101855582156100c4579182015b828111156100c35782518255916020019190600101906100a8565b5b5090506100d191906100d5565b5090565b5b808211156100ee5760008160009055506001016100d6565b5090565b6000610105610100846101c0565b61019b565b90508281526020810184848401111561011d57600080fd5b6101288482856101f1565b509392505050565b600082601f83011261014157600080fd5b81516101518482602086016100f2565b91505092915050565b60006020828403121561016c57600080fd5b600082015167ffffffffffffffff81111561018657600080fd5b61019284828501610130565b91505092915050565b60006101a56101b6565b90506101b18282610256565b919050565b6000604051905090565b600067ffffffffffffffff8211156101db576101da6102b6565b5b6101e4826102e5565b9050602081019050919050565b60005b8381101561020f5780820151818401526020810190506101f4565b8381111561021e576000848401525b50505050565b6000600282049050600182168061023c57607f821691505b602082108114156102505761024f610287565b5b50919050565b61025f826102e5565b810181811067ffffffffffffffff8211171561027e5761027d6102b6565b5b80604052505050565b7f4e487b7100000000000000000000000000000000000000000000000000000000600052602260045260246000fd5b7f4e487b7100000000000000000000000000000000000000000000000000000000600052604160045260246000fd5b6000601f19601f8301169050919050565b61022e806103056000396000f3fe608060405234801561001057600080fd5b506004361061002b5760003560e01c806321ce8f8b14610030575b600080fd5b61004a60048036038101906100459190610161565b61004c565b005b600160405180604001604052808473ffffffffffffffffffffffffffffffffffffffff1681526020018373ffffffffffffffffffffffffffffffffffffffff16815250908060018154018082558091505060019003906000526020600020906002020160009091909190915060008201518160000160006101000a81548173ffffffffffffffffffffffffffffffffffffffff021916908373ffffffffffffffffffffffffffffffffffffffff16021790555060208201518160010160006101000a81548173ffffffffffffffffffffffffffffffffffffffff021916908373ffffffffffffffffffffffffffffffffffffffff16021790555050505050565b60008135905061015b816101e1565b92915050565b6000806040838503121561017457600080fd5b60006101828582860161014c565b92505060206101938582860161014c565b9150509250929050565b60006101a8826101c1565b9050919050565b60006101ba8261019d565b9050919050565b600073ffffffffffffffffffffffffffffffffffffffff82169050919050565b6101ea816101af565b81146101f557600080fd5b5056fea26469706673582212207876fe96e15525797efe15015fab35ab841bf946c893474594866eeadf9c59c464736f6c63430008040033a264697066735822122043375683d8c3135507646e00f192c58af33eab81441ddc5849b5ca1eebc26b8c64736f6c63430008040033608060405234801561001057600080fd5b506114f1806100206000396000f3fe60806040523480156200001157600080fd5b5060043610620000945760003560e01c806388b85f7a116200006357806388b85f7a146200014557806391c4c6d8146200016757806397babf51146200019d578063e36fe76614620001d35762000094565b806306496bef14620000995780634579268a14620000b957806365c8ee2f14620000ef5780636b42fbaf146200010f575b600080fd5b620000b76004803603810190620000b19190620008ed565b620001f5565b005b620000d76004803603810190620000d1919062000947565b620003e2565b604051620000e69190620009f8565b60405180910390f35b6200010d6004803603810190620001079190620008ed565b62000450565b005b6200012d600480360381019062000127919062000947565b6200063d565b6040516200013c9190620009f8565b60405180910390f35b6200014f620006ac565b6040516200015e919062000aba565b60405180910390f35b6200018560048036038101906200017f919062000947565b620006b8565b60405162000194919062000a9d565b60405180910390f35b620001bb6004803603810190620001b5919062000947565b620006f8565b604051620001ca919062000a9d565b60405180910390f35b620001dd62000738565b604051620001ec919062000aba565b60405180910390f35b6000338383604051620002089062000745565b620002169392919062000a15565b604051809103906000f08015801562000233573d6000803e3d6000fd5b5090506001819080600181540180825580915050600190039060005260206000200160009091909190916101000a81548173ffffffffffffffffffffffffffffffffffffffff021916908373ffffffffffffffffffffffffffffffffffffffff1602179055507f594fe124d2c30c17de6a73c55a80515dea479697db2d7bad3c3409ed3f531b538173ffffffffffffffffffffffffffffffffffffffff166337a6d42b6040518163ffffffff1660e01b815260040160206040518083038186803b1580156200030157600080fd5b505afa15801562000316573d6000803e3d6000fd5b505050506040513d601f19601f820116820180604052508101906200033c91906200087c565b8273ffffffffffffffffffffffffffffffffffffffff1663e42cb9f36040518163ffffffff1660e01b815260040160006040518083038186803b1580156200038357600080fd5b505afa15801562000398573d6000803e3d6000fd5b505050506040513d6000823e3d601f19601f82011682018060405250810190620003c39190620008a8565b83604051620003d59392919062000a59565b60405180910390a1505050565b60008082815481106200041e577f4e487b7100000000000000000000000000000000000000000000000000000000600052603260045260246000fd5b9060005260206000200160009054906101000a900473ffffffffffffffffffffffffffffffffffffffff169050919050565b6000338383604051620004639062000745565b620004719392919062000a15565b604051809103906000f0801580156200048e573d6000803e3d6000fd5b5090506000819080600181540180825580915050600190039060005260206000200160009091909190916101000a81548173ffffffffffffffffffffffffffffffffffffffff021916908373ffffffffffffffffffffffffffffffffffffffff1602179055507fa71e1d26487988ae4e7ffa49776173ff0af1f0fffa3f9c29a7eb943dc25c45668173ffffffffffffffffffffffffffffffffffffffff166337a6d42b6040518163ffffffff1660e01b815260040160206040518083038186803b1580156200055c57600080fd5b505afa15801562000571573d6000803e3d6000fd5b505050506040513d601f19601f820116820180604052508101906200059791906200087c565b8273ffffffffffffffffffffffffffffffffffffffff1663e42cb9f36040518163ffffffff1660e01b815260040160006040518083038186803b158015620005de57600080fd5b505afa158015620005f3573d6000803e3d6000fd5b505050506040513d6000823e3d601f19601f820116820180604052508101906200061e9190620008a8565b83604051620006309392919062000a59565b60405180910390a1505050565b6000600182815481106200067a577f4e487b7100000000000000000000000000000000000000000000000000000000600052603260045260246000fd5b9060005260206000200160009054906101000a900473ffffffffffffffffffffffffffffffffffffffff169050919050565b60008080549050905090565b60018181548110620006c957600080fd5b906000526020600020016000915054906101000a900473ffffffffffffffffffffffffffffffffffffffff1681565b600081815481106200070957600080fd5b906000526020600020016000915054906101000a900473ffffffffffffffffffffffffffffffffffffffff1681565b6000600180549050905090565b6107be8062000cfe83390190565b60006200076a620007648462000b00565b62000ad7565b9050828152602081018484840111156200078357600080fd5b6200079084828562000bf4565b509392505050565b6000620007af620007a98462000b00565b62000ad7565b905082815260208101848484011115620007c857600080fd5b620007d584828562000c03565b509392505050565b600081519050620007ee8162000caf565b92915050565b600081359050620008058162000cc9565b92915050565b600082601f8301126200081d57600080fd5b81356200082f84826020860162000753565b91505092915050565b600082601f8301126200084a57600080fd5b81516200085c84826020860162000798565b91505092915050565b600081359050620008768162000ce3565b92915050565b6000602082840312156200088f57600080fd5b60006200089f84828501620007dd565b91505092915050565b600060208284031215620008bb57600080fd5b600082015167ffffffffffffffff811115620008d657600080fd5b620008e48482850162000838565b91505092915050565b600080604083850312156200090157600080fd5b600083013567ffffffffffffffff8111156200091c57600080fd5b6200092a858286016200080b565b92505060206200093d85828601620007f4565b9150509250929050565b6000602082840312156200095a57600080fd5b60006200096a8482850162000865565b91505092915050565b6200097e8162000b52565b82525050565b6200098f8162000ba4565b82525050565b620009a08162000bcc565b82525050565b6000620009b38262000b36565b620009bf818562000b41565b9350620009d181856020860162000c03565b620009dc8162000c9e565b840191505092915050565b620009f28162000b9a565b82525050565b600060208201905062000a0f600083018462000973565b92915050565b600060608201905062000a2c600083018662000973565b818103602083015262000a408185620009a6565b905062000a51604083018462000984565b949350505050565b600060608201905062000a70600083018662000973565b818103602083015262000a848185620009a6565b905062000a95604083018462000995565b949350505050565b600060208201905062000ab4600083018462000995565b92915050565b600060208201905062000ad16000830184620009e7565b92915050565b600062000ae362000af6565b905062000af1828262000c39565b919050565b6000604051905090565b600067ffffffffffffffff82111562000b1e5762000b1d62000c6f565b5b62000b298262000c9e565b9050602081019050919050565b600081519050919050565b600082825260208201905092915050565b600062000b5f8262000b7a565b9050919050565b600062000b738262000b52565b9050919050565b600073ffffffffffffffffffffffffffffffffffffffff82169050919050565b6000819050919050565b600062000bb18262000bb8565b9050919050565b600062000bc58262000b7a565b9050919050565b600062000bd98262000be0565b9050919050565b600062000bed8262000b7a565b9050919050565b82818337600083830152505050565b60005b8381101562000c2357808201518184015260208101905062000c06565b8381111562000c33576000848401525b50505050565b62000c448262000c9e565b810181811067ffffffffffffffff8211171562000c665762000c6562000c6f565b5b80604052505050565b7f4e487b7100000000000000000000000000000000000000000000000000000000600052604160045260246000fd5b6000601f19601f8301169050919050565b62000cba8162000b52565b811462000cc657600080fd5b50565b62000cd48162000b66565b811462000ce057600080fd5b50565b62000cee8162000b9a565b811462000cfa57600080fd5b5056fe608060405234801561001057600080fd5b506040516107be3803806107be83398181016040528101906100329190610207565b826000806101000a81548173ffffffffffffffffffffffffffffffffffffffff021916908373ffffffffffffffffffffffffffffffffffffffff16021790555081600190805190602001906100889291906100d2565b5080600260006101000a81548173ffffffffffffffffffffffffffffffffffffffff021916908373ffffffffffffffffffffffffffffffffffffffff16021790555050505061043b565b8280546100de9061033b565b90600052602060002090601f0160209004810192826101005760008555610147565b82601f1061011957805160ff1916838001178555610147565b82800160010185558215610147579182015b8281111561014657825182559160200191906001019061012b565b5b5090506101549190610158565b5090565b5b80821115610171576000816000905550600101610159565b5090565b600061018861018384610293565b61026e565b9050828152602081018484840111156101a057600080fd5b6101ab848285610308565b509392505050565b6000815190506101c28161040d565b92915050565b6000815190506101d781610424565b92915050565b600082601f8301126101ee57600080fd5b81516101fe848260208601610175565b91505092915050565b60008060006060848603121561021c57600080fd5b600061022a868287016101b3565b935050602084015167ffffffffffffffff81111561024757600080fd5b610253868287016101dd565b9250506040610264868287016101c8565b9150509250925092565b6000610278610289565b9050610284828261036d565b919050565b6000604051905090565b600067ffffffffffffffff8211156102ae576102ad6103cd565b5b6102b7826103fc565b9050602081019050919050565b60006102cf826102e8565b9050919050565b60006102e1826102c4565b9050919050565b600073ffffffffffffffffffffffffffffffffffffffff82169050919050565b60005b8381101561032657808201518184015260208101905061030b565b83811115610335576000848401525b50505050565b6000600282049050600182168061035357607f821691505b602082108114156103675761036661039e565b5b50919050565b610376826103fc565b810181811067ffffffffffffffff82111715610395576103946103cd565b5b80604052505050565b7f4e487b7100000000000000000000000000000000000000000000000000000000600052602260045260246000fd5b7f4e487b7100000000000000000000000000000000000000000000000000000000600052604160045260246000fd5b6000601f19601f8301169050919050565b610416816102c4565b811461042157600080fd5b50565b61042d816102d6565b811461043857600080fd5b50565b6103748061044a6000396000f3fe608060405234801561001057600080fd5b50600436106100415760003560e01c806337a6d42b14610046578063606303e414610064578063e42cb9f314610082575b600080fd5b61004e6100a0565b60405161005b91906101cf565b60405180910390f35b61006c6100c4565b60405161007991906101ea565b60405180910390f35b61008a6100ea565b6040516100979190610205565b60405180910390f35b60008054906101000a900473ffffffffffffffffffffffffffffffffffffffff1681565b600260009054906101000a900473ffffffffffffffffffffffffffffffffffffffff1681565b600180546100f7906102cc565b80601f0160208091040260200160405190810160405280929190818152602001828054610123906102cc565b80156101705780601f1061014557610100808354040283529160200191610170565b820191906000526020600020905b81548152906001019060200180831161015357829003601f168201915b505050505081565b61018181610243565b82525050565b61019081610275565b82525050565b60006101a182610227565b6101ab8185610232565b93506101bb818560208601610299565b6101c48161032d565b840191505092915050565b60006020820190506101e46000830184610178565b92915050565b60006020820190506101ff6000830184610187565b92915050565b6000602082019050818103600083015261021f8184610196565b905092915050565b600081519050919050565b600082825260208201905092915050565b600061024e82610255565b9050919050565b600073ffffffffffffffffffffffffffffffffffffffff82169050919050565b600061028082610287565b9050919050565b600061029282610255565b9050919050565b60005b838110156102b757808201518184015260208101905061029c565b838111156102c6576000848401525b50505050565b600060028204905060018216806102e457607f821691505b602082108114156102f8576102f76102fe565b5b50919050565b7f4e487b7100000000000000000000000000000000000000000000000000000000600052602260045260246000fd5b6000601f19601f830116905091905056fea264697066735822122053a90b210d9ae7c51b2aad1d6dcec5e3041b25c5aca01624dc3b27a95939800164736f6c63430008040033a2646970667358221220b86a584b04561b091442a3b506dee3c13049ef3f77950926696286dc6141618364736f6c63430008040033",
  "linkReferences": {},
  "deployedLinkReferences": {}
}