{
  "_format": "hh-sol-artifact-1",
  "contractName": "SemanticSwap",
  "sourceName": "contracts/SemanticSwap/SemanticSwap.sol",
  "abi": [
    {
      "inputs": [],
      "stateMutability": "nonpayable",
      "type": "constructor"
    },
    {
      "inputs": [
        {
          "internalType": "uint256",
          "name": "",
          "type": "uint256"
        }
      ],
      "name": "matchProposals",
      "outputs": [
        {
          "internalType": "contract MatchProposal",
          "name": "",
          "type": "address"
        }
      ],
      "stateMutability": "view",
      "type": "function"
    },
    {
      "inputs": [],
      "name": "orderBook",
      "outputs": [
        {
          "internalType": "contract OrderBook",
          "name": "",
          "type": "address"
        }
      ],
      "stateMutability": "view",
      "type": "function"
    },
    {
      "inputs": [
        {
          "internalType": "string",
          "name": "reason",
          "type": "string"
        },
        {
          "components": [
            {
              "internalType": "contract Order",
              "name": "producer",
              "type": "address"
            },
            {
              "internalType": "contract Order",
              "name": "consumer",
              "type": "address"
            }
          ],
          "internalType": "struct MatchLink[]",
          "name": "matchLinks",
          "type": "tuple[]"
        }
      ],
      "name": "proposeMatch",
      "outputs": [],
      "stateMutability": "nonpayable",
      "type": "function"
    }
  ],
  "bytecode": "0x608060405234801561001057600080fd5b5060405161001d9061007e565b604051809103906000f080158015610039573d6000803e3d6000fd5b506000806101000a81548173ffffffffffffffffffffffffffffffffffffffff021916908373ffffffffffffffffffffffffffffffffffffffff16021790555061008b565b61110580610d5983390190565b610cbf8061009a6000396000f3fe60806040523480156200001157600080fd5b5060043610620000465760003560e01c8063776af5ba146200004b5780639b07e6c7146200006d578063b9e5179914620000a3575b600080fd5b62000055620000c3565b6040516200006491906200053a565b60405180910390f35b6200008b60048036038101906200008591906200048b565b620000e7565b6040516200009a91906200051d565b60405180910390f35b620000c16004803603810190620000bb91906200040f565b62000127565b005b60008054906101000a900473ffffffffffffffffffffffffffffffffffffffff1681565b60018181548110620000f857600080fd5b906000526020600020016000915054906101000a900473ffffffffffffffffffffffffffffffffffffffff1681565b6000848460405162000139906200030d565b6200014692919062000584565b604051809103906000f08015801562000163573d6000803e3d6000fd5b50905060005b83839050811015620002a2578173ffffffffffffffffffffffffffffffffffffffff166321ce8f8b858584818110620001cb577f4e487b7100000000000000000000000000000000000000000000000000000000600052603260045260246000fd5b9050604002016000016020810190620001e59190620003e3565b8686858181106200021f577f4e487b7100000000000000000000000000000000000000000000000000000000600052603260045260246000fd5b9050604002016020016020810190620002399190620003e3565b6040518363ffffffff1660e01b81526004016200025892919062000557565b600060405180830381600087803b1580156200027357600080fd5b505af115801562000288573d6000803e3d6000fd5b505050508080620002999062000694565b91505062000169565b506001819080600181540180825580915050600190039060005260206000200160009091909190916101000a81548173ffffffffffffffffffffffffffffffffffffffff021916908373ffffffffffffffffffffffffffffffffffffffff1602179055505050505050565b610533806200075783390190565b60008083601f8401126200032e57600080fd5b8235905067ffffffffffffffff8111156200034857600080fd5b6020830191508360408202830111156200036157600080fd5b9250929050565b600081359050620003798162000722565b92915050565b60008083601f8401126200039257600080fd5b8235905067ffffffffffffffff811115620003ac57600080fd5b602083019150836001820283011115620003c557600080fd5b9250929050565b600081359050620003dd816200073c565b92915050565b600060208284031215620003f657600080fd5b6000620004068482850162000368565b91505092915050565b600080600080604085870312156200042657600080fd5b600085013567ffffffffffffffff8111156200044157600080fd5b6200044f878288016200037f565b9450945050602085013567ffffffffffffffff8111156200046f57600080fd5b6200047d878288016200031b565b925092505092959194509250565b6000602082840312156200049e57600080fd5b6000620004ae84828501620003cc565b91505092915050565b620004c2816200060d565b82525050565b620004d38162000635565b82525050565b620004e4816200065d565b82525050565b6000620004f88385620005aa565b93506200050783858462000685565b620005128362000711565b840190509392505050565b6000602082019050620005346000830184620004b7565b92915050565b6000602082019050620005516000830184620004c8565b92915050565b60006040820190506200056e6000830185620004d9565b6200057d6020830184620004d9565b9392505050565b60006020820190508181036000830152620005a1818486620004ea565b90509392505050565b600082825260208201905092915050565b6000620005c882620005e3565b9050919050565b6000620005dc82620005bb565b9050919050565b600073ffffffffffffffffffffffffffffffffffffffff82169050919050565b6000819050919050565b60006200061a8262000621565b9050919050565b60006200062e82620005e3565b9050919050565b6000620006428262000649565b9050919050565b60006200065682620005e3565b9050919050565b60006200066a8262000671565b9050919050565b60006200067e82620005e3565b9050919050565b82818337600083830152505050565b6000620006a18262000603565b91507fffffffffffffffffffffffffffffffffffffffffffffffffffffffffffffffff821415620006d757620006d6620006e2565b5b600182019050919050565b7f4e487b7100000000000000000000000000000000000000000000000000000000600052601160045260246000fd5b6000601f19601f8301169050919050565b6200072d81620005cf565b81146200073957600080fd5b50565b620007478162000603565b81146200075357600080fd5b5056fe608060405234801561001057600080fd5b506040516105333803806105338339818101604052810190610032919061015a565b806000908051906020019061004892919061004f565b50506102f6565b82805461005b90610224565b90600052602060002090601f01602090048101928261007d57600085556100c4565b82601f1061009657805160ff19168380011785556100c4565b828001600101855582156100c4579182015b828111156100c35782518255916020019190600101906100a8565b5b5090506100d191906100d5565b5090565b5b808211156100ee5760008160009055506001016100d6565b5090565b6000610105610100846101c0565b61019b565b90508281526020810184848401111561011d57600080fd5b6101288482856101f1565b509392505050565b600082601f83011261014157600080fd5b81516101518482602086016100f2565b91505092915050565b60006020828403121561016c57600080fd5b600082015167ffffffffffffffff81111561018657600080fd5b61019284828501610130565b91505092915050565b60006101a56101b6565b90506101b18282610256565b919050565b6000604051905090565b600067ffffffffffffffff8211156101db576101da6102b6565b5b6101e4826102e5565b9050602081019050919050565b60005b8381101561020f5780820151818401526020810190506101f4565b8381111561021e576000848401525b50505050565b6000600282049050600182168061023c57607f821691505b602082108114156102505761024f610287565b5b50919050565b61025f826102e5565b810181811067ffffffffffffffff8211171561027e5761027d6102b6565b5b80604052505050565b7f4e487b7100000000000000000000000000000000000000000000000000000000600052602260045260246000fd5b7f4e487b7100000000000000000000000000000000000000000000000000000000600052604160045260246000fd5b6000601f19601f8301169050919050565b61022e806103056000396000f3fe608060405234801561001057600080fd5b506004361061002b5760003560e01c806321ce8f8b14610030575b600080fd5b61004a60048036038101906100459190610161565b61004c565b005b600160405180604001604052808473ffffffffffffffffffffffffffffffffffffffff1681526020018373ffffffffffffffffffffffffffffffffffffffff16815250908060018154018082558091505060019003906000526020600020906002020160009091909190915060008201518160000160006101000a81548173ffffffffffffffffffffffffffffffffffffffff021916908373ffffffffffffffffffffffffffffffffffffffff16021790555060208201518160010160006101000a81548173ffffffffffffffffffffffffffffffffffffffff021916908373ffffffffffffffffffffffffffffffffffffffff16021790555050505050565b60008135905061015b816101e1565b92915050565b6000806040838503121561017457600080fd5b60006101828582860161014c565b92505060206101938582860161014c565b9150509250929050565b60006101a8826101c1565b9050919050565b60006101ba8261019d565b9050919050565b600073ffffffffffffffffffffffffffffffffffffffff82169050919050565b6101ea816101af565b81146101f557600080fd5b5056fea2646970667358221220a42c3dfe64f2580f36bb0279809c175235135e04f9117b2436ccf2678616846a64736f6c63430008040033a264697066735822122068daa329b412b0671f20948c23a9cfede1ea5cfd85b6497e678c707a3396f24464736f6c63430008040033608060405234801561001057600080fd5b506110e5806100206000396000f3fe60806040523480156200001157600080fd5b5060043610620000525760003560e01c806321b8571d146200005757806391c4c6d8146200007757806397babf5114620000ad578063e13b255914620000e3575b600080fd5b6200007560048036038101906200006f9190620006a3565b62000103565b005b6200009560048036038101906200008f91906200072d565b620002ed565b604051620000a4919062000834565b60405180910390f35b620000cb6004803603810190620000c591906200072d565b6200032d565b604051620000da919062000834565b60405180910390f35b620001016004803603810190620000fb9190620006a3565b6200036d565b005b60003382604051620001159062000557565b62000122929190620007bc565b604051809103906000f0801580156200013f573d6000803e3d6000fd5b5090506001819080600181540180825580915050600190039060005260206000200160009091909190916101000a81548173ffffffffffffffffffffffffffffffffffffffff021916908373ffffffffffffffffffffffffffffffffffffffff1602179055507f594fe124d2c30c17de6a73c55a80515dea479697db2d7bad3c3409ed3f531b538173ffffffffffffffffffffffffffffffffffffffff166337a6d42b6040518163ffffffff1660e01b815260040160206040518083038186803b1580156200020d57600080fd5b505afa15801562000222573d6000803e3d6000fd5b505050506040513d601f19601f8201168201806040525081019062000248919062000677565b8273ffffffffffffffffffffffffffffffffffffffff1663e42cb9f36040518163ffffffff1660e01b815260040160006040518083038186803b1580156200028f57600080fd5b505afa158015620002a4573d6000803e3d6000fd5b505050506040513d6000823e3d601f19601f82011682018060405250810190620002cf9190620006e8565b83604051620002e193929190620007f0565b60405180910390a15050565b60018181548110620002fe57600080fd5b906000526020600020016000915054906101000a900473ffffffffffffffffffffffffffffffffffffffff1681565b600081815481106200033e57600080fd5b906000526020600020016000915054906101000a900473ffffffffffffffffffffffffffffffffffffffff1681565b600033826040516200037f9062000557565b6200038c929190620007bc565b604051809103906000f080158015620003a9573d6000803e3d6000fd5b5090506000819080600181540180825580915050600190039060005260206000200160009091909190916101000a81548173ffffffffffffffffffffffffffffffffffffffff021916908373ffffffffffffffffffffffffffffffffffffffff1602179055507fa71e1d26487988ae4e7ffa49776173ff0af1f0fffa3f9c29a7eb943dc25c45668173ffffffffffffffffffffffffffffffffffffffff166337a6d42b6040518163ffffffff1660e01b815260040160206040518083038186803b1580156200047757600080fd5b505afa1580156200048c573d6000803e3d6000fd5b505050506040513d601f19601f82011682018060405250810190620004b2919062000677565b8273ffffffffffffffffffffffffffffffffffffffff1663e42cb9f36040518163ffffffff1660e01b815260040160006040518083038186803b158015620004f957600080fd5b505afa1580156200050e573d6000803e3d6000fd5b505050506040513d6000823e3d601f19601f82011682018060405250810190620005399190620006e8565b836040516200054b93929190620007f0565b60405180910390a15050565b61068e8062000a2283390190565b60006200057c62000576846200087a565b62000851565b9050828152602081018484840111156200059557600080fd5b620005a284828562000932565b509392505050565b6000620005c1620005bb846200087a565b62000851565b905082815260208101848484011115620005da57600080fd5b620005e784828562000941565b509392505050565b6000815190506200060081620009ed565b92915050565b600082601f8301126200061857600080fd5b81356200062a84826020860162000565565b91505092915050565b600082601f8301126200064557600080fd5b815162000657848260208601620005aa565b91505092915050565b600081359050620006718162000a07565b92915050565b6000602082840312156200068a57600080fd5b60006200069a84828501620005ef565b91505092915050565b600060208284031215620006b657600080fd5b600082013567ffffffffffffffff811115620006d157600080fd5b620006df8482850162000606565b91505092915050565b600060208284031215620006fb57600080fd5b600082015167ffffffffffffffff8111156200071657600080fd5b620007248482850162000633565b91505092915050565b6000602082840312156200074057600080fd5b6000620007508482850162000660565b91505092915050565b6200076481620008cc565b82525050565b62000775816200090a565b82525050565b60006200078882620008b0565b620007948185620008bb565b9350620007a681856020860162000941565b620007b181620009dc565b840191505092915050565b6000604082019050620007d3600083018562000759565b8181036020830152620007e781846200077b565b90509392505050565b600060608201905062000807600083018662000759565b81810360208301526200081b81856200077b565b90506200082c60408301846200076a565b949350505050565b60006020820190506200084b60008301846200076a565b92915050565b60006200085d62000870565b90506200086b828262000977565b919050565b6000604051905090565b600067ffffffffffffffff821115620008985762000897620009ad565b5b620008a382620009dc565b9050602081019050919050565b600081519050919050565b600082825260208201905092915050565b6000620008d982620008e0565b9050919050565b600073ffffffffffffffffffffffffffffffffffffffff82169050919050565b6000819050919050565b600062000917826200091e565b9050919050565b60006200092b82620008e0565b9050919050565b82818337600083830152505050565b60005b838110156200096157808201518184015260208101905062000944565b8381111562000971576000848401525b50505050565b6200098282620009dc565b810181811067ffffffffffffffff82111715620009a457620009a3620009ad565b5b80604052505050565b7f4e487b7100000000000000000000000000000000000000000000000000000000600052604160045260246000fd5b6000601f19601f8301169050919050565b620009f881620008cc565b811462000a0457600080fd5b50565b62000a128162000900565b811462000a1e57600080fd5b5056fe608060405234801561001057600080fd5b5060405161068e38038061068e833981810160405281019061003291906101b0565b816000806101000a81548173ffffffffffffffffffffffffffffffffffffffff021916908373ffffffffffffffffffffffffffffffffffffffff1602179055508060019080519060200190610088929190610090565b5050506103a8565b82805461009c906102bf565b90600052602060002090601f0160209004810192826100be5760008555610105565b82601f106100d757805160ff1916838001178555610105565b82800160010185558215610105579182015b828111156101045782518255916020019190600101906100e9565b5b5090506101129190610116565b5090565b5b8082111561012f576000816000905550600101610117565b5090565b600061014661014184610229565b610204565b90508281526020810184848401111561015e57600080fd5b61016984828561028c565b509392505050565b60008151905061018081610391565b92915050565b600082601f83011261019757600080fd5b81516101a7848260208601610133565b91505092915050565b600080604083850312156101c357600080fd5b60006101d185828601610171565b925050602083015167ffffffffffffffff8111156101ee57600080fd5b6101fa85828601610186565b9150509250929050565b600061020e61021f565b905061021a82826102f1565b919050565b6000604051905090565b600067ffffffffffffffff82111561024457610243610351565b5b61024d82610380565b9050602081019050919050565b60006102658261026c565b9050919050565b600073ffffffffffffffffffffffffffffffffffffffff82169050919050565b60005b838110156102aa57808201518184015260208101905061028f565b838111156102b9576000848401525b50505050565b600060028204905060018216806102d757607f821691505b602082108114156102eb576102ea610322565b5b50919050565b6102fa82610380565b810181811067ffffffffffffffff8211171561031957610318610351565b5b80604052505050565b7f4e487b7100000000000000000000000000000000000000000000000000000000600052602260045260246000fd5b7f4e487b7100000000000000000000000000000000000000000000000000000000600052604160045260246000fd5b6000601f19601f8301169050919050565b61039a8161025a565b81146103a557600080fd5b50565b6102d7806103b76000396000f3fe608060405234801561001057600080fd5b50600436106100365760003560e01c806337a6d42b1461003b578063e42cb9f314610059575b600080fd5b610043610077565b6040516100509190610171565b60405180910390f35b61006161009b565b60405161006e919061018c565b60405180910390f35b60008054906101000a900473ffffffffffffffffffffffffffffffffffffffff1681565b600180546100a89061022f565b80601f01602080910402602001604051908101604052809291908181526020018280546100d49061022f565b80156101215780601f106100f657610100808354040283529160200191610121565b820191906000526020600020905b81548152906001019060200180831161010457829003601f168201915b505050505081565b610132816101ca565b82525050565b6000610143826101ae565b61014d81856101b9565b935061015d8185602086016101fc565b61016681610290565b840191505092915050565b60006020820190506101866000830184610129565b92915050565b600060208201905081810360008301526101a68184610138565b905092915050565b600081519050919050565b600082825260208201905092915050565b60006101d5826101dc565b9050919050565b600073ffffffffffffffffffffffffffffffffffffffff82169050919050565b60005b8381101561021a5780820151818401526020810190506101ff565b83811115610229576000848401525b50505050565b6000600282049050600182168061024757607f821691505b6020821081141561025b5761025a610261565b5b50919050565b7f4e487b7100000000000000000000000000000000000000000000000000000000600052602260045260246000fd5b6000601f19601f830116905091905056fea26469706673582212202a2f4ed147b7a2fb10dbb5cb2cde1c40b91531230b1743f096775b671ec194f364736f6c63430008040033a264697066735822122018007b7ee261e6f0e08647b579d3e09cb33e3eb6f77791f7b863f623b46d6b9564736f6c63430008040033",
  "linkReferences": {},
  "deployedLinkReferences": {}
}